:020000040800F2
:1000000078230020C9010008B90500085B05000835
:10001000B505000879020008EB0A0008000000009E
:10002000000000000000000000000000C9060008F9
:10003000E903000800000000A5060008A109000867
:10004000E3010008E3010008E3010008E301000800
:10005000E3010008E3010008E3010008E3010008F0
:10006000E3010008E3010008E3010008E3010008E0
:10007000E3010008E3010008E3010008E3010008D0
:10008000E3010008E3010008E3010008E3010008C0
:10009000E3010008E3010008E3010008E3010008B0
:1000A000E3010008E3010008E3010008E3010008A0
:1000B000E3010008E3010008E3010008E301000890
:1000C000E3010008E3010008E3010008E301000880
:1000D000E3010008050A0008E3010008E301000845
:1000E000E3010008E3010008E301000800F002F862
:1000F00000F05AF80AA090E8000C82448344AAF168
:100100000107DA4501D100F04FF8AFF2090EBAE865
:100110000F0013F0010F18BFFB1A43F0010318473B
:100120001C0E00003C0E00000A444FF0000C10F8BA
:10013000013B13F0070408BF10F8014B1D1108BF65
:1001400010F8015B641E05D010F8016B641E01F805
:10015000016BF9D113F0080F1EBF10F8014BAD1C55
:100160000C1B09D16D1E58BF01F801CBFAD505E073
:1001700014F8016B01F8016B6D1EF9D59142D6D3CD
:10018000704700000023002400250026103A28BFF5
:1001900078C1FBD8520728BF30C148BF0B607047F9
:1001A0001FB51FBD10B510BD00F033F81146FFF7A5
:1001B000F7FF00F04DFD00F051F803B4FFF7F2FF38
:1001C00003BC00F0F9FC00000948804709480047DB
:1001D000FEE7FEE7FEE7FEE7FEE7FEE7FEE7FEE7F7
:1001E000FEE7FEE704480549054A064B7047000054
:1001F000A5090008ED000008781D002078230020E4
:10020000781F0020781F00207047704770477047A4
:100210007047754600F02CF8AE4605006946534617
:1002200020F00700854618B020B5FFF7DBFFBDE8DA
:1002300020404FF000064FF000074FF000084FF04D
:10024000000B21F00701AC46ACE8C009ACE8C009DE
:10025000ACE8C009ACE8C0098D46704710B504464B
:10026000AFF300802046BDE81040FFF7A6BF0000B6
:1002700000487047141D002000BFFEE71CB54BF678
:10028000BA2300221146104600F0EEFC4BF6BA23CA
:1002900001220021102000F0E7FC4BF6BA230222D5
:1002A0000021202000F0E0FC4BF6BA2303220021BD
:1002B000302000F0D9FC4BF6BA2304220021402064
:1002C00000F0D2FC4BF6BA2305220021502000F0AA
:1002D000CBFC17221B213A4800F0BFFD40F6B83096
:1002E00000F090FC0021084600F088F84FF6E0731B
:1002F00002220021334800F0C3FD4FF6E0730222D2
:100300001321314800F0BCFD4FF6E0730222262194
:100310002E4800F0B5FD4FF6E073022234212C4840
:1003200000F0AEFD4FF6E07302224221294800F0B2
:10033000A7FD4FF6E07302225021274800F0A0FDF0
:1003400000201F2140233222CDE900101021082077
:1003500000F0C4FC00201F2140233322CDE900100F
:100360001021182000F0BAFC00204FF478414023FF
:100370003A22CDE900101021282000F0AFFC002027
:100380001F2140233522CDE900101021382000F034
:10039000A5FC00201F2140233622CDE900101021AA
:1003A000482000F09BFC00204FF4FC6110230BA2BE
:1003B000CDE900103021092000F00EFD1CBD000029
:1003C000620F0020F61B0020081C00202C1C0020BF
:1003D000361C0020401C00201A1C0020323031390D
:1003E0002D31312D31330000704710B504462620E1
:1003F00000F07EFB204600F07BFB10BD2DE9F041B4
:1004000007460C465F21002000F0D4F93F21002070
:1004100000F053FA00250DE0002607E0384600F012
:1004200099FB204600F096FB701CC6B2602EF5DBEF
:10043000681CC5B2402DEFDBBDE8F0812DE9F0412D
:10044000024600250026002000230024002791F802
:1004500003C00CF00F0591F803C00CF0100CBCF1B8
:10046000000F03D091F802C04CEA050591F800C0D6
:10047000BCF1000F31D0146800202BE04FF0010CCC
:100480000CFA00F3B1F800C00CEA03069E4220D13A
:1004900083004FF00F0C0CFA03F7BC4305FA03FC82
:1004A0004CEA040491F803C0BCF1280F06D14FF0C8
:1004B000010C0CFA00FCC2F814C00AE091F803C069
:1004C000BCF1480F05D14FF0010C0CFA00FCC2F84A
:1004D00010C0401C0828D1D31460B1F800C0BCF192
:1004E000FF0F34DD546800202EE000F1080C4FF0BF
:1004F000010808FA0CF3B1F800C00CEA03069E42AA
:1005000021D183004FF00F0C0CFA03F7BC4305FA1E
:1005100003FC4CEA040491F803C0BCF1280F05D198
:1005200000F1080C08FA0CF8C2F8148091F803C026
:10053000BCF1480F07D100F1080C4FF0010808FA90
:100540000CF8C2F81080401C0828CED35460BDE8D7
:10055000F081416170470161704700BFFEE7000014
:1005600010B50648006808B9012000E000200349E2
:1005700008604FF4FA7000F045FB10BDB401224250
:1005800008B50121102000F08FF810208DF803002D
:100590004002ADF8000003208DF8020069460448CF
:1005A000FFF74CFF4FF400510148FFF7D4FF08BD9F
:1005B0000010014000BFFEE77047000038B5012180
:1005C000082000F071F8C020ADF8000010208DF870
:1005D000030003208DF8020069463148FFF72EFF23
:1005E000C0212F48FFF7B7FF40F20310ADF800001D
:1005F00069462B48FFF722FF40F203112848FFF716
:10060000AAFF4FF480712648FFF7A3FF002404E0FF
:10061000FA2000F08CFC601CC4B2FA2CF8DB4FF41A
:1006200080711F48FFF797FF002000F0F7F8722055
:1006300000F031F9002000F064F9002000F0E5F846
:10064000002000F0DBF83F2000F001F98E2000F0E0
:10065000ECF80B2000F00DF9312000F025F9F02026
:1006600000F0FEF864227821104600F033F93A20B9
:1006700000F008F93E2000F04DF9062000F0DEF809
:100680007D225021912000F0A2F8012000F0C6F850
:100690000120FFF7AAFE00210846FFF7AFFE38BD94
:1006A000000C01407047000029B1064A92690243DC
:1006B000044B9A6104E0034A92698243014B9A61B8
:1006C0007047000000100240704710B500F002F8BB
:1006D00010BD00000CB50020019000903348006868
:1006E00040F480303149086000BF3048006800F4B1
:1006F000003000900198401C0190009818B90198B2
:10070000B0F5A06FF1D12948006800F4003010B1B5
:100710000120009001E0002000900098012843D1C2
:100720002348006840F0100021490860084600682E
:1007300020F0030008600846006840F002000860EE
:100740001A484068194948600846406848600846A9
:10075000406840F4806048600846406820F47C109F
:1007600048600846406840F4E81048600846006861
:1007700040F08070086000BF0C48006800F0007016
:100780000028F9D00948406820F003000749486074
:100790000846406840F00200486000BF03484068D7
:1007A00000F00C000828F9D10CBD00000010024038
:1007B0000020024070B505460C46152000F098F95F
:1007C000284600F095F9204600F092F970BD70B50A
:1007D00006460C461546812000F08AF9304600F0A6
:1007E00087F9822000F084F9204600F081F9832007
:1007F00000F07EF9284600F07BF970BD10B5044684
:1008000044F0A40000F074F910BD10B50446A22015
:1008100000F06EF9204600F06BF910BD10B50446EB
:1008200044F0AE0000F064F910BD10B50446AD20F0
:1008300000F05EF9204600F05BF910BD10B50446EB
:10084000872000F055F9204600F052F910BD10B590
:100850000446A82000F04CF9204600F049F910BDEC
:1008600010B50446B32000F043F9204600F040F9EB
:1008700010BD10B50446B02000F03AF9204600F053
:1008800037F910BD10B50446BB2000F031F9204601
:1008900000F02EF910BD10B50446A02000F028F994
:1008A000204600F025F910BD10B50446B12000F037
:1008B0001FF9204600F01CF910BD70B505460C4626
:1008C000752000F015F9284600F012F9204600F0D6
:1008D0000FF970BD70B506460C4615468A2000F02B
:1008E00007F9304600F004F98B2000F001F92046AA
:1008F00000F0FEF88C2000F0FBF8284600F0F8F835
:1009000070BD10B50446A12000F0F2F8204600F0BA
:10091000EFF810BD10B50446BE2000F0E9F82046FF
:1009200000F0E6F810BD2DE9F05F80460D46164652
:100930001F46DDF82890701B401CA9EB0701491CDD
:1009400000FB01FB444631462846FFF733FF49468A
:100950003846FFF7B2FF4FF0000A09E0207800F0B8
:10096000F9F8641C207800F0F5F8641C0AF1010A1B
:10097000DA45F3D3BDE8F09F042808D14FF0E02119
:10098000096941F004014FF0E022116107E04FF0E6
:10099000E021096921F004014FF0E0221161704764
:1009A0007047000010B51348006840F0010011497D
:1009B000086008464068104908400E4948600846EB
:1009C00000680E4908400B4908600846006820F49A
:1009D000802008600846406820F4FE0048604FF41C
:1009E0001F008860FFF771FE4FF000600449086047
:1009F00010BD0000001002400000FFF8FFFFF6FEEF
:100A000008ED00E010B540F225511D4800F03EF819
:100A100010B31B4800F064F8C4B21A48008800F410
:100A20000040C8B91748008800F4804060B10A2C23
:100A300003D000201349088020E01248008840F4C9
:100A400000401049088019E00D2C06D10D4800889F
:100A500040F480400B49088010E00A480088C0F349
:100A60000D0009490C5407480088401C05490880BE
:100A700008460088C72801DD0020088010BD00005E
:100A8000003801401C0000204C1C002070B50246BC
:100A9000002400230025002040F66A16B14200D150
:100AA00000BFC1F3421501F01F03012606FA03F34C
:100AB000012D02D19689334006E0022D02D1168A1B
:100AC000334001E0968A33400C12012606FA04F402
:100AD0001688344013B10CB1012000E0002070BD35
:100AE00001468888C0F30800704700BFFEE7000099
:100AF00070B5044640211648FFF72BFD80211448AD
:100B0000FFF727FD002517E001211148FFF721FD20
:100B100004F0800020B102210D48FFF71CFD03E026
:100B200002210B48FFF715FD6006040E012108485D
:100B3000FFF711FD681CC5B2082DE5DB80210448D4
:100B4000FFF709FD40210248FFF705FD70BD0000D9
:100B5000000C014070B5044640211648FFF7F9FC2F
:100B600080211448FFF7F7FC002517E00121114808
:100B7000FFF7EFFC04F0800020B102210D48FFF7E1
:100B8000EAFC03E002210B48FFF7E3FC6006040ED9
:100B900001210848FFF7DFFC681CC5B2082DE5DB22
:100BA00080210448FFF7D7FC40210248FFF7D3FC1F
:100BB00070BD0000000C0140014600BF70470000FE
:100BC00010B56FF00400FFF7D7FE0A4800680A4925
:100BD000B0FBF1F0094908700846007800EB4001CD
:100BE000C1EBC0104FF6FF7101EAC0000449088054
:100BF00010BD00000000002000127A001400002048
:100C0000160000200146114A12884A434FF0E023A3
:100C10005A6100229A611A46126942F001021A6171
:100C200000BF4FF0E022106900F001021AB100F499
:100C30008032002AF5D04FF0E022126922F0010242
:100C40004FF0E0231A6100229A61704716000020DD
:100C5000FFF796FCFFF7B4FFFFF7B0FCFFF70EFBC2
:100C600001E0FFF77DFCFCE72DE9F05F06460C464E
:100C7000174698464FF0000AA346002527E016487D
:100C800000EB471010F805A04FF0000919E00AF03A
:100C9000800020B142462146304600F029F94FEA53
:100CA0004A604FEA106A601CC4B2A4EB0B00102823
:100CB00003D15C46701CC6B206E009F1010000F0E9
:100CC000FF09B9F1080FE2DB00BF681CC5B2202D97
:100CD000D5DBBDE8F09F0000A20E00202DE9FC5FEF
:100CE00080460C4615461E4601944FF0000AB8F1A6
:100CF0005F0F01DA3F2C01DBBDE8FC9F0C2E06D014
:100D0000102E0DD0202E12D0402E1ED116E0A5F1AF
:100D1000200000EB40002C4901EB800A374614E02C
:100D2000A5F12000294901EB001A37460DE0A5F195
:100D30003000274901EB401A102706E0A5F13000EA
:100D4000244901EB801A202700BF00BFAAF1010A45
:100D50004FF0000934E00AF1010A9AF8000000900F
:100D60004FF0000B24E0009800F0800028B12146ED
:100D700040460C9A00F0BCF806E00D9820B900221D
:100D80002146404600F0B4F800984006000E00905E
:100D9000601CC4B20198201AB84205D1019C08F128
:100DA000010000F0FF0806E00BF1010000F0FF0B6E
:100DB000BBF1080FD7D300BF09F1010000F0FF0914
:100DC000B145C8DB00BF97E71E0000209204002059
:100DD000820A0020E20B00202DE9FC4706460F4660
:100DE00015461C46DDE90A9AB0465F2E01DA3F2F10
:100DF00001DBBDE8FC872BE004EBD4714910C1F1A5
:100E00005F01B1420DDA00263819C7B2C4F13F00C4
:100E1000B84206DA00200646074600210846FFF7DA
:100E2000EDFA28780A2804D13819C7B246466D1C55
:100E30000EE0CDE9009A2A78234639463046FFF77E
:100E40004DFF6D1C204604EBD07106EB6101CEB264
:100E500028780028D0D100BFCBE7F8B504460E466D
:100E6000154660782844401EC0B200902078304477
:100E7000401EC2B22B463146A01CFFF754FDF8BD00
:100E80002DE9FC5F05460F469046994695F800A06F
:100E900095F801B0A81C01900AF10700C11700EBFA
:100EA0005171C910009100261EE0002418E0E117DE
:100EB00004EB5171CB10DDE9002106FB0211C95C86
:100EC00004F0070380221A41114039B108EB0602F1
:100ED000D1B23A19D0B24A4600F00AF8601C84B286
:100EE0005445E4DB701C86B25E45DEDBBDE8FC9F4A
:100EF00070B504460D4616465F2C01DA3F2D00DB27
:100F000070BD21462046FFF755FC29462846FFF7CD
:100F1000D4FC304600F002F800BFF1E710B50446FB
:100F20002012FFF717FEE0B2FFF714FE10BD00BF5E
:100F3000011EA0F10102D0B2FAD170475C0F000887
:100F4000000000204C1C000028010008AC1F000815
:100F50004C1C00202C070000840100081184A24AC8
:100F60000400091A0102030406070809833F40121E
:100F7000303A40042112093C0BC03D041209200BF9
:100F800018C024407FE02240318012181424C01B76
:100F900010110D803240018003801C4027401C80CE
:100FA0000740134010F260271F80204040201E4061
:100FB0002020401F3A29541A06161A0608211A043E
:100FC000022B3F800631993D2912490251799A112D
:100FD000152001C0063A3811295A290249564D10E8
:100FE000403FC028180A18C0214022402440180E53
:100FF0001A10241A24021A1B241202120D12111C98
:101000003FC001182B3C80161C244023183A1F0CAB
:101010001C3440030C123012201C27C03806215A01
:101020001B24293C121C1C22C02256496C218A0810
:1010300092119A04B61A0A621E2080404009DE49C5
:101040000239BF1D402080111C12041A185A1C239B
:1010500040240849C02E274029401F4C154007C096
:1010600039120F1A01C41A20CA697869E41A300CBF
:10107000291869F049247D2E4030C00C19BC213A52
:101080000FF23E2240338002181A04744936693E3A
:10109000311B602001190E198C493C120B3A301C8F
:1010A000292211290215C03FC03C1A03045A3F608F
:1010B0002C0C4023487990898469CC68092140210F
:1010C0004020E01FA01812261A19CC3A18CA1C2278
:1010D0004031305A30C229A812202B3F806A2B3F62
:1010E00080861A3EF812071A380A12381A07762C28
:1010F00007C03824154039C0062A3994291A1A40E5
:10110000163340201F304021C026400C199C412B33
:101110007FE093411270120C2A0358312914637F27
:10112000E01A20133921219A100229269118080269
:10113000800540054003B4199C1EC0044004404A89
:10114000312B03800C3A0629290C1A24C429374A6A
:10115000033039183C04401FE82964280B02E005DD
:1011600050055006500420EE193C11295429243A08
:10117000270849843C0410279C2924140140071A9D
:10118000042A19B1495C19263C07C00404193C190A
:101190003A190A79484990299CBF041007F0045075
:1011A000A81C5007F05C19301A023052041A06A627
:1011B0001C054004481932111A1F26398E111307D5
:1011C0008019481A0754190C19801C018006161240
:1011D000061C01C007043A06D61406C0011A067C94
:1011E000396C4C1004E024291A1C05C0063E61121B
:1011F000043B7BE0FB5163FFF04D40207BE082121B
:1012000040196B111A200259310111131FCC820CA5
:10121000120812305A6006216F022003FC1E2006BD
:1012200041400B0E1811043FFF10840C78120F156B
:1012300010840F3816C0077818842912100A780F06
:101240008410C411240E9812E41284130808126842
:10125000021170380907E01818200440029E600847
:10126000022004181807E0280B0240024001800FFA
:10127000F001800A312A80024B0FF8083112011266
:101280000DD20E491A6902218A0CCC51120612188D
:101290002C6001800729C1380D07F00808100410E0
:1012A00004080807F0F0160408041FFC1A04025191
:1012B000380C0E0C10141024104411840E481E0C0F
:1012C00018100411024C12880CC91808E0032004FD
:1012D0002408243442242D1F981084203C108810A8
:1012E0002019602A88104B1888F9121C12103C1023
:1012F000FC130839601E3811441084343C440E3805
:1013000030114809088C1044104408889041AC03FF
:101310000C03C4AC010106F02F014002200410C6EA
:1013200021AB0220024129DA170410022001403AC1
:1013300080701112122808100C106C10800F5A3097
:101340000EE00C1813E4142417C4082807D0120464
:1013500010083C03C41C4007401AE4A32E041004E8
:101360001FFCBE3C11040EC029301A101619021BB6
:10137000081CC1292049102B0808B069301B17C46C
:10138000127A1810111417C0105A0870393014440A
:101390001C785A40401A849A2C8010844A29126979
:1013A0005449FB111B011002141FFE10196F5950F4
:1013B0004F03801464181C2E393649024A0C10223F
:1013C0001F1904694E261FFC0C04031CE0101812A0
:1013D00011ED07F00808B02D1084108002320F19AB
:1013E000201C181024028E1C080A07F2C01F11C00E
:1013F00011300E0C64111D0E1C1104321A84C2220D
:10140000381A189659B0190C1930114B1FF8901949
:10141000162AF8B4121E1311E0121C2D7013801C32
:101420001E14C0103C1AE0A22EE0103C1FC0602821
:101430000D180C163401C001C01634180C46121CCD
:101440001313042CFC13042E2118090804101C107B
:10145000641084102B041061512D7FFE4002024164
:101460001A30F71303801A603919E721491AA37F4C
:10147000FE12203A40024220DA0102891A812E9897
:101480000124014402111AFCC611131FFC16880125
:10149000040104128852704A7010391299101B11FD
:1014A000082A32044AF83E19403AC871191C1D0F27
:1014B000FC1104021139C13CD601290224C90106DC
:1014C0001B1004363A848B19F629402E01041904A6
:1014D000190A294C4112033F010101190119D2399E
:1014E0003012241E4001B4010C3239123914593023
:1014F000196E1AFC04114906112906D96019A03980
:10150000BE19101AF830140101FF0A1385E01A05FC
:101510001A3A010A2942295452805CCC0124023A29
:10152000987219023A0754590E3AF88C1C040108B3
:10153000383936130170120C1C1001600A111501A4
:10154000F0010C1C3001C0041A0C0C49B2128C2E94
:10155000740170018C42199014810171120E4A18A5
:101560003019121A842A2C34014408A11201873E32
:10157000FC4002400283FFFF29162B3EFC3A611219
:10158000601A80021A40021A2002210F103FFC3F0D
:10159000FC300C02291801101A3002E9180F10391A
:1015A000FC39FC318C021A3F02410D13381C381CE7
:1015B0002059481D3F803F80DAF90279200C12BC87
:1015C0003FBC404C31FC31200C1A9C3F9C201A3807
:1015D0000229B8E90279601908091BA00915606998
:1015E00020C10516183018302D3FFFFFFC04191FCD
:1015F0000A1A0C0469280120296729040926302DBC
:101600003C01FFFC040D1A3001800C044B3FFF0429
:1016100001101A384329040920400914901954393B
:1016200004110A1C01040919402A3C04091E803ACD
:1016300030E40912404958091E401A3C3C29040173
:10164000105A3C040A1D30040918C00924800918E6
:10165000402B803C04093640C14B0FF0021A0CB3FA
:10166000290469100114200908200620407E3180D9
:101670001220181027F02420242027F02002200117
:101680003FFE201231600C04040604040408040820
:10169000FFFF100BFFFC0202040208021002221ED0
:1016A000100A2410246025807FFFC51344802D205C
:1016B000442033371A202C3A40021960181D0822A2
:1016C0000841FFFE088009011001110211C2113406
:1016D000FF0811141162118110015F1A01023A0210
:1016E00062153004C0FF1B04C0081A08102A021A31
:1016F00021181C02200C2088206920092009228939
:1017000021697E096009A019202820C8200A1A2111
:101710000C1C2827FF012812DFF7BED69BDEBCFF7A
:10172000DFFFFFE73DCE3AF79E0A093201A80BF72B
:10173000BFDEDCD6BCE71CE71C161809EF7DDEFC1B
:10174000D6BCD67A58092A4CA80EBECE5AD69BFFD4
:10175000DFC639A4F7E73D1A2D9CB6B578082CDE14
:10176000FCC6AC0923014DD6BBD6BB0A9F8C96BDE7
:10177000F9DEDC1A6E9BA4F683F40E0D20E71DCE75
:101780005A4E19786ABF0C3DB5B8EF5DE61A7E0275
:10179000B8097DF79ECE7AF7BDEFB08BC6192E093A
:1017A00012E89DD67BEF7E904816DB9D585BD63BBA
:1017B000142251221219F119903A3252F3A51764EA
:1017C0007932BBBCE7629901380ADFCE7BFFFF6349
:1017D00053B598CE180C5D7CB73B553B754396438B
:1017E000B6042810553B143AB3325231F1214F213F
:1017F0002F6B5344A80BC619B5B88C34FFFFE6FC19
:101800006289012BCE5A06281D6354B5B8FFFF9D8F
:101810005833143B964C174C1754374C174BF64320
:10182000B63B753B3452380B321131B0292F290E9B
:101830009496EE3ABEC8FC7AF79E4E3C5BFFDF08FA
:1018400018129CFFFF6C15331443D6543754575469
:10185000585478041A58542814D643753AF43292DE
:10186000323231F131B0318F20CD62F2D4493ECBEA
:10187000C61A4E6DEF5DDEFC0C180F5BD52AF44BDB
:10188000D64C3754585C985CD9022CB95C98524FAE
:1018900043D63B553AD3A27809318F398F28CE5A97
:1018A0009241ACDFD67B506BC5F90A480974142A03
:1018B0009343964BF74E1F651A6519651A541C78A9
:1018C0005437F629A21A72502AD0506F396F28CE99
:1018D0006B32388BDEFCF44DE73DDEFC60180BBE4E
:1018E0001A22113B3443B64C17502ED964F96D5A65
:1018F000023D5CF95CB9A21C963B14506A315088D9
:101900000F396F20AEBDB9FFFFAD36E71CD69AE2A6
:10191000580FD6BBFFFF4A2FC5FACE5A3A72327221
:10192000501A789EA809196D5A757B6D5A64503A01
:1019300092504A9050480F312F394FEF9EBDD9B584
:10194000777393CE5A4E5813F7BFD6BBD69BAD775D
:10195000FFFEA537219032933B14A0180AB95CF919
:10196000653A6D3A6539F03E9854384BF7F08A5233
:10197000F0195018084F28CE8C15CE5BF02EBCC540
:10198000F9EF5E506BEF3DFA180F4A7129F1327290
:101990003AF443754BF65437A2195219021AD99EDC
:1019A0001E7854374BD6181C7542F4A01CB0318FEA
:1019B0005239507D310F49F0E83A9B064A7B0E5868
:1019C0000BE75D212E31F132523AB3F22E585C789A
:1019D0005C9802394E180EF73B757497C5F7B5B68B
:1019E0009D58299050194E1B394F504E4F20ADE74E
:1019F0001D422BCE3A064BDEBC0E1DAD57210F50BB
:101A0000180C3132923AF43B5543B64BF7A42A589E
:101A10000268154C374BF643B633146C35CDF6CE11
:101A200017CE9A29B0316F504F394F20CEA537428B
:101A30002BEF3D064BC6190E1F9497292F31D0521C
:101A40003C323293521E9643D64BF6023814D6439C
:101A5000B643963B542AB37C96E6DAEF5DF7BE3286
:101A6000114E59505D28EE8C56A01C7AF79EA04A64
:101A7000DC0E180D62D1294F31B031D13211325202
:101A8000521CD33B14542A7502280D3B353B143AA3
:101A9000D332736BD1BDD72A6D52F3312E4E19F26A
:101AA0004C2F5AB1424809DEFCF7BFFFFFE6FC0E9F
:101AB000180D5AB220EE292E294F298F31D0542AE1
:101AC000725419021AF4042CB33293642D7BCF9410
:101AD000B22A2D849728EE50394E4E6F292F5AD2B4
:101AE00042280BE73DFFDFFFFFD69BFFDFA4281254
:101AF0008C5573F594D794D87C364AF329F121B0EC
:101B00002AA81A52581A720618103229D15B966BFD
:101B10002B6B4DFFDEF77DC65B50294C180E4F39FD
:101B20002F314F290F6312FFFFEF7EF02A7BF01B4E
:101B3000C61A4C580A34F79EDEDABDB4E6FA6A18C3
:101B40000A5D9D5942D3219031F1AA18091131F152
:101B500031F029908450180D52AACE18DEBADEDA80
:101B600041F1312E5048100E312F52F45B32B5D96D
:101B7000FFFFAD58F7BEF01813E73DF7BEBDD9DE45
:101B8000DBE71D7BD48456A579DF3E51180EDEEFCE
:101B90003CDEBA94F73A52297031B00228286F4AD5
:101BA000B394B2736D6B2CBDD7B595B5958C562893
:101BB000EE310E42118C956B2C41C6BDD6D6BBAD15
:101BC00056DEDBDEFC8C183FD6BBFFFFA517B5B891
:101BD000FFFF20AD28EE28EE294F5AF3B5DAE73B98
:101BE000CE17B574AD756374294F316F296F94D6D4
:101BF0008C307BAE84547C16AD33A4D2AD35399095
:101C00005AB39CD362CA641808D3FFFFB597AD7866
:101C10004A2A9B50182DEF7EEF7DD67B9CF6FFFF66
:101C20006B1328EE394F394F312E290E5AF3BDF977
:101C3000B5749CB29CB27C36210F7C36AD33947067
:101C40009CD4E8181470A5158C308C309D18A535DF
:101C500083CE8C7163B55B34CF4CDCBDD89A49A27E
:101C6000280DEF7DAD77DEDBD69C186D312F521835
:101C700017396F310E317094D7A4F2840F7BCEBD2B
:101C8000FACE17AD53A5564E68200E30EE6B358C4C
:101C900050736D7BCEA5139CB16BF710CECE7BDE5F
:101CA000FB9CB6EF7DE71CF79E502DFFDFF7BE0AC9
:101CB0001F7BD439B0310F4C1A2F021E0F20AD7B81
:101CC000F63C180C4D6B0BBDD6A519292F310EBC57
:101CD00018124F28EE7BD5630B5AAA62EBB5FA2196
:101CE000915313EE480898A516FFFFCE5A4E2DFFCC
:101CF000FFF7BFFA18179CF5DEDBFFFF83F07BD3FD
:101D000062F441B1394F41D16B54C61B12180DEF2B
:101D10005ACA528A7BF2525228EE39BE681B20CE34
:101D20007C36EF5C7B8D52684A276BB0F7DFE71C8F
:101D3000A4F7EF9EF79EDEFC501DFFFFDEBCA61C45
:101D40009B7BD2061816BA5ACA632B7BCF9494D6C3
:101D5000BAEF5DCE7C84166B5484513C180B4873EB
:101D60008E73D5399020EE7C8C1811FFFFC65C6B0A
:101D7000F463B1C617FFFFAD37BDD8108A3A4E29BC
:101D8000012819E73DFFFFBDD9BDB8FFFFBE1A31DD
:101D9000D04A714A514A31398F28EE02180E4A3220
:101DA0008454630B420652A973B09D42180BEF9EF8
:101DB000743629D1110FA5794E2A574ECDDEDCF7A6
:101DC0009E501DFFDFEF7EF41CD6AD376C18081A4D
:101DD000290E290E314F023A6F0228184F294F520F
:101DE000F47C55638F7C536BF4533429D0217021DC
:101DF000B0BE1A30D8099CB6F79EF7BED69B4E39B6
:101E00005229641BA51622780CBEF7BE6333210F3E
:101E1000296F31B002081E1190299031D129B129C2
:101E2000B0219021706374F7BEEF7DFFDFDEFCFF11
:101E3000DFFFDED67B4E19011818DEDCE73DEF9D93
:101E4000C5FA9CD6C619FFFFCE7B63332990194F84
:101E5000214A2B29B002180B21B0217029D06374BC
:101E6000C63AC4280A199495B5B8FFFFF7BE0E0903
:101E70001601380FDEBBDEDCFFFFD69BC619B57836
:101E8000CE5A2E28125B8C776BD552F352F373D552
:101E90008C97C65BF7BE28080C15A5178413BDD90F
:101EA000FFFFE73DCE9C69012DF79EBDF9081BEFB2
:101EB0005D782CDFAD57361BF7BEDE180C5DEF7D6D
:101EC000E73CD6BBC639A4F7BC2A5A582BD69B7E12
:101ED0000920011FCE5ADEBBFFDF5428187DAD3725
:101EE000B578FFFFAD57A517DEDB7BD2D67B7BF441
:101EF000C63AC639241BE71CC01924092501480825
:101F0000BFCE7BCE7BE73D0D480BE73DE75DDEDCDA
:101F1000DEFCEF7EC24DD69BCE5A0C092C01380B4D
:101F2000EF5DCE7BE6FDBDF9EF5E0F1EDFC63ADE4C
:101F3000DD4A0C305DFFBF4C093601A328103E3F3F
:101F4000F1818FFC0568083031818C0C3001051956
:101F5000145905112919390539235C3FF1FF050191
:101F60001A580C1008FE02920A542A38AA12024883
:101F70000F10081FF810081818142813C810080E9E
:101F80004F0FFE300226DA02181930020FFE080841
:101F90001854321C1C3254180808C39924202C24CD
:0C1FA00099C30A2008BD42524E423CC3C7
:04000005080001C925
:00000001FF
