:020000040800F2
:10000000104100201D23000851020008530200087F
:10001000570200085B0200085F02000800000000B1
:100020000000000000000000000000006302000863
:10003000650200080000000067020008690200086D
:100040003723000837230008372300083723000828
:100050003723000837230008372300083723000818
:100060003723000837230008372300083723000808
:1000700037230008372300083723000837230008F8
:1000800037230008372300083723000837230008E8
:1000900037230008372300083723000837230008D8
:1000A00037230008372300083723000837230008C8
:1000B00037230008372300083723000837230008B8
:1000C00037230008372300083723000837230008A8
:1000D000372300089322000837230008372300083D
:1000E0003723000837230008372300083723000888
:1000F0003723000837230008372300083723000878
:100100003723000837230008372300083723000867
:100110003723000837230008372300083723000857
:100120003723000837230008372300083723000847
:1001300000F002F800F05AF80AA090E8000C82449F
:100140008344AAF10107DA4501D100F04FF8AFF27C
:10015000090EBAE80F0013F0010F18BFFB1A43F0A5
:1001600001031847882E0000A82E00000A444FF013
:10017000000C10F8013B13F0070408BF10F8014B06
:100180001D1108BF10F8015B641E05D010F8016B4B
:10019000641E01F8016BF9D113F0080F1EBF10F8AF
:1001A000014BAD1C0C1B09D16D1E58BF01F801CBD2
:1001B000FAD505E014F8016B01F8016B6D1EF9D555
:1001C0009142D6D37047000000230024002500266A
:1001D000103A28BF78C1FBD8520728BF30C148BFAA
:1001E0000B6070471FB51FBD10B510BD02F0CCFEEF
:1001F0001146FFF7F7FF00F009F802F0EAFE03B43A
:10020000FFF7F2FF03BC01F0E9FF000001F0C8FEB8
:1002100001F07AFF4FF4A06002F0A0F84FF4E13053
:1002200001F0EBFF00F042FE00F046FB0AE04FF465
:100230007A7001F0A6FF0448006880F001000349CD
:10024000C1F89401F3E7000094812142008021422B
:10025000704700BFFEE700BFFEE700BFFEE700BF3C
:10026000FEE7704770477047704700000CB50020EC
:10027000019000906C48006840F480306A49086042
:1002800000BF6948006800F4003000900198401CED
:100290000190009818B90198B0F5A06FF1D16248AB
:1002A000006800F4003010B10120009001E000204F
:1002B00000900098012843D15C48006840F010008D
:1002C0005A4908600846006820F0030008600846A4
:1002D000006840F002000860534840685249486096
:1002E0000846406848600846406840F480604860BE
:1002F0000846406820F47C1048600846406840F496
:10030000E81048600846006840F08070086000BF50
:100310004548006800F000700028F9D04248406865
:1003200020F00300404948600846406840F0020061
:10033000486000BF3C48406800F00C000828F9D134
:100340000CBD10B5FFF792FF10BD10B53648006820
:1003500040F00100344908600846406834490840CC
:100360003149486008460068324908402E49086013
:100370000846006820F4802008600846406820F4A1
:10038000FE0048604FF41F008860FFF7DAFF4FF06F
:1003900000602949086010BD10B50021002000222E
:1003A000214B5B6803F00C0121B1042906D0082918
:1003B00028D107E0214B224C236027E01F4B204C23
:1003C000236023E0184B5B6803F47010164B5B68E6
:1003D00003F48032022303EB904022B9194B4343CC
:1003E000174C23600DE0104B5B6803F4003323B11E
:1003F000144B4343124C236003E0104B4343104C17
:10040000236003E00D4B0E4C236000BF00BF064B82
:100410005B68C3F303130C4CE15C094B1B68CB40D6
:10042000074C236010BD0000001002400020024075
:100430000000FFF8FFFFF6FE08ED00E000127A0072
:100440000000002000093D000400002010B5044613
:10045000201200F069FEE0B200F066FE10BD70B53B
:1004600004460D4616465F2C01DA3F2D00DB70BDB9
:100470002146204600F087FE2946284600F090FEDF
:100480003046FFF7E3FF00BFF1E72DE9F04F93B0EF
:1004900006460D4690461C46AB462046E21704EB46
:1004A0005272D2102146E31704EB5373DB10A4EB16
:1004B000C3030BB1012300E000231A446243D2B20C
:1004C00000920C2C06D0102C04D0182C02D013B0A3
:1004D000BDE8F08F224601A9404601F0A5FD0027A6
:1004E0002DE001A810F807904FF0000A21E009F074
:1004F000800028B1E9B2F0B21C9AFFF7B0FF06E025
:100500001D9820B9E9B2F0B20022FFF7A8FF4FEA28
:1005100049604FEA1069681C85B2A5EB0B00A04248
:1005200003D15D46701C86B206E00AF1010000F0BE
:10053000FF0ABAF1080FDADB00BF781CC7B20098D7
:100540008742CEDB00BFC2E72DE9FC5F80460F4645
:1005500014461D4601974FF0000AB8F15F0F01DA0B
:100560003F2F01DBBDE8FC9F182D1AD004DC0C2DB9
:1005700007D0102D2CD10DE0202D1BD0402D27D1E0
:100580001FE0A4F1200000EB4000FE4901EB800ACF
:100590002E461DE0A4F12000FB4901EB001A2E4677
:1005A00016E0A4F1200000EBC000F84901EB800A3E
:1005B0002E460DE0A4F13000F54901EB401A10265B
:1005C00006E0A4F13000F34901EB801A202600BFB9
:1005D00000BFAAF1010A4FF0000934E00AF1010A54
:1005E0009AF8000000904FF0000B24E0009800F013
:1005F000800028B1394640460C9AFFF730FF06E0EC
:100600000D9820B9002239464046FFF728FF009890
:100610004006000E0090781CC7B20198381AB0420C
:1006200005D1019F08F1010000F0FF0806E00BF181
:10063000010000F0FF0BBBF1080FD7D300BF09F199
:10064000010000F0FF09A945C8DB00BF8AE72DE9DA
:10065000FC5F06460F4615461C46DDE90C89B2468E
:100660004FF0000B54E0BBF1000F32D12878802806
:1006700002DD4FF0010B4BE004EBD4714910C1F1E6
:100680005F01B1420DDA0026381987B2C4F13F008C
:10069000B84206DA0020064607460021084600F068
:1006A000ADFE28780A2804D1381987B256466D1C49
:1006B0002EE0CDE900892A78F9B2F0B22346FFF79F
:1006C00043FF6D1C204604EBD07106EB61018EB236
:1006D0001EE04FF0000BC4F15F00B0420DDA0026BF
:1006E000381987B2C4F13F00B84206DA0020064646
:1006F00007460021084600F081FE23462A46394677
:100700003046CDE90089FFF7C0FEAD1C301986B236
:1007100028780028A7D1BDE8FC9F2DE9FC5F05469D
:100720000F469046994695F800A095F801B0A81C90
:1007300001900AF10700C11700EB5171C910009137
:1007400000261EE0002418E0E11704EB5171CB10E5
:10075000DDE9002106FB0211C95C04F007038022D9
:100760001A41114039B108EB0602D1B23A19D0B2A0
:100770004A46FFF774FE601C84B25445E4DB701CEB
:1007800086B25E45DEDBBDE8FC9F2DE9FC5F0546D9
:100790000F4692461C46504602F0D3FB04EBD47140
:1007A0004910484386B20194A346AE4215DAA7EB3E
:1007B0000B0000EBD071C1F34708A81B00EBD07110
:1007C000C1F34709DDE90C0123465246CDE900019A
:1007D00041464846FFF73BFF22E096FBF5F005FB5C
:1007E000106030B196FBF5F000FB04401FFA80FB6F
:1007F00004E096FBF5F060431FFA80FB4FF0000920
:10080000A7EB0B0000EBD071C1F34708DDE90C0149
:1008100023465246CDE9000141464846FFF717FFFF
:10082000BDE8FC9FF8B504460E461546607828449E
:10083000401EC0B2009020783044401EC2B22B4609
:100840003146A01C00F0C8FEF8BD2DE9F05F064659
:100850000C46174698464FF0000AA346002527E0AD
:100860004D4800EB471010F805A04FF0000919E0C3
:100870000AF0800020B1424621463046FFF7EFFDE6
:100880004FEA4A604FEA106A601CC4B2A4EB0B0046
:10089000102803D15C46701CC6B206E009F10100C5
:1008A00000F0FF09B9F1080FE2DB00BF681CC5B218
:1008B000202DD5DBBDE8F09F1CB54BF6BA230022F6
:1008C00011461046FFF7C1FF4BF6BA230122002163
:1008D0001020FFF7BAFF4BF6BA2302220021202096
:1008E000FFF7B3FF4BF6BA23032200213020FFF7B6
:1008F000ACFF4BF6BA23042200214020FFF7A5FFEE
:100900004BF6BA23052200215020FFF79EFF172245
:100910001B212248FFF786FF40F6B83001F031FC7A
:100920000021084600F06AFD00204EF6B6510C2367
:100930001BA2CDE9001019466020FFF726FF00201A
:1009400040F2FF710C231AA2CDE90010342160207F
:10095000FFF71BFF40F6B83001F013FC00210846FA
:1009600000F04CFD4FF6E073022200211948FFF71A
:10097000D4FE4FF6E073022213211748FFF7CDFE95
:100980002CE000001400002088040020780A0020D9
:10099000D417002034190020F41B0020B41C0020C0
:1009A000BABAD7D6CFD4CABEB2E2CAD400000000C9
:1009B000D3D6CBAB85AA85AC0ABBF0D1D7ECCDA002
:1009C000440ACDC1B9E788900ABDF0E577F6CE209C
:1009D00000000000482900205A2900204FF6E0734B
:1009E00002222621FA48FFF798FE4FF6E073022212
:1009F0003421F848FFF791FE4FF6E07302224221BE
:100A0000F548FFF78AFE4FF6E07302225021F348C3
:100A1000FFF783FE00201F2140233222CDE9001082
:100A200010210820FFF790FD00201F2140233322D2
:100A3000CDE9001010211820FFF786FD00204FF4AB
:100A4000784140233A22CDE9001010212820FFF7F9
:100A50007BFD00201F2140233522CDE9001010210D
:100A60003820FFF771FD00201F2140233622CDE9F9
:100A7000001010214820FFF767FD002048F24511C3
:100A80001023D7A2CDE9001030210920FFF7DFFDA8
:100A90001CBD10B50446E1B2201200F0AFFC10BD41
:100AA0002DE9FC4104460D4616461F46DDF8208020
:100AB00008F0FF004FEA2821FBB2EAB2CDE90010AE
:100AC000F1B2E0B200F0BAFCBDE8FC812DE9FC47D0
:100AD00004460D4616461F46DDE90A8909F0FF0067
:100AE00008F0FF01FBB2F2B2CDE90010E9B2E0B2CA
:100AF00000F065FCBDE8FC872DE9F04F87B00446A7
:100B00000D4616461F46E9B2E0B2109AFFF7A7FC61
:100B1000B44204D1BD4202D107B0BDE8F08F00203D
:100B20000290A64202DBA6EB040801E0A4EB060853
:100B3000AF4202DBA7EB050901E0A5EB0709C845B9
:100B40000CDA0121029120462C46054630463E46ED
:100B500007461FFA88F0C846814600BFA64201DD5D
:100B6000012001E04FF0FF300690AF4201DD01208F
:100B700001E04FF0FF300590A24601954FEA490091
:100B80000490A9EB0800400003900498A0EB080B28
:100B90001EE0BBF1000F02DA0498834405E00599DA
:100BA00001980844019003988344029838B10AF0F0
:100BB000FF01019AD0B2109AFFF751FC06E0019AAA
:100BC000D1B20AF0FF00109AFFF749FC0698824460
:100BD000B245DED100BF9FE72DE9F04707460C463E
:100BE00016469846A0193E2801DAA01900E03E20DA
:100BF00081465F2F01DA3F2C01DBBDE8F0872546F7
:100C000006E0E9B242463846FFF729FC681C85B287
:100C10004D45F6DB00BFF0E72DE9F04704460F46EF
:100C200016469846A0195E2801DAA01900E05E2059
:100C300081465F2C01DA3F2F01DBBDE8F0872546B6
:100C400006E0E8B242463946FFF709FC681C85B267
:100C50004D45F6DB00BFF0E72DE9F04387B00646CF
:100C60000F4690469946DDE90E4505F01F00C5F395
:100C70004411EA1204F01F03CDE90232CDE9041059
:100C8000C4F34410E11209F0FF0308F0FF02CDE9BC
:100C90000010F9B2F0B200F065FB07B0BDE8F083D8
:100CA0002DE9F04706460F4690469A460320A0EBF2
:100CB00048090024454646E07A19D1B23219D0B22B
:100CC0005246FFF7CCFB7A1BD1B23219D0B2524652
:100CD000FFF7C5FB7A19D1B2321BD0B25246FFF7EB
:100CE000BEFB7A1BD1B2321BD0B25246FFF7B7FB24
:100CF0003A19D1B27219D0B25246FFF7B0FB3A1B83
:100D0000D1B27219D0B25246FFF7A9FB3A19D1B24B
:100D1000721BD0B25246FFF7A2FB3A1BD1B2721B34
:100D2000D0B25246FFF79BFBB9F1000F04DA062060
:100D300000EB8400814405E0601B0A2101EB800088
:100D400081446D1E641CAC42B6D9BDE8F0872DE924
:100D5000FC4706460F4615461C46DDE90A9AB04692
:100D60005F2E01DA3F2F01DBBDE8FC872BE004EBAF
:100D7000D4714910C1F15F01B1420DDA0026381972
:100D8000C7B2C4F13F00B84206DA00200646074663
:100D90000021084600F032FB28780A2804D13819CF
:100DA000C7B246466D1C0EE0CDE9009A2A7823466C
:100DB00039463046FFF7C8FB6D1C204604EBD07166
:100DC00006EB6101CEB228780028D0D100BFCBE776
:100DD0007E29002088290020922900206C290020EB
:100DE000323031392D31312D3133000010B502460A
:100DF000012000E050430B1EA1F10104E1B2F9D142
:100E000010BD2DE9FF4F85B0074691461E46DDE92E
:100E100013AB129D00200490002438E0301B401ECC
:100E2000C1B20A20FFF7E2FFB9FBF0F00A21B0FBE4
:100E3000F1F201FB12080498B0B9701EA04213DD54
:100E4000B8F1000F0ED105EBD571491001FB04710B
:100E5000C8B22B462022CDE900AB03950699FFF7D7
:100E600073FB12E00120049005EBD571491001FBE2
:100E70000471C8B208F13001CAB22B46CDE900AB0B
:100E800003950699FFF760FB00BF601CC4B2B44233
:100E9000C4DB09B0BDE8F08F70B504460D461646B8
:100EA00032462946204600F0F6FB70BD3EB50121D2
:100EB0004FF4987001F0DCFD4820ADF808001020D8
:100EC0008DF80B0003208DF80A0002A95B4801F0A1
:100ED00013FB4821594801F0BCFB0320ADF8080082
:100EE00002A9574801F008FB0321554801F0B1FB66
:100EF0004FF40040ADF8080002A9524801F0FCFA96
:100F00004FF400414F4801F0A4FB4FF400414D481D
:100F100001F0A1FB002404E0FA2000F0B7F8601C07
:100F2000C4B2FA2CF8DB4FF40041464801F091FBC3
:100F3000002000F064F9722000F03FF9002000F07A
:100F400045F9002000F04BF9002000F051F93F2056
:100F500000F0C9F98E2000F0BDF90B2000F056F921
:100F6000312000F05CF9F02000F062F96422782171
:100F7000104600F08FF93A2000F063F93E2000F0AF
:100F800069F9062000F09DF97D225021912000F0A2
:100F90006AF9012000F033F9012000F0B6F90021D0
:100FA000084600F02BFA00F0C5FC274800884EF6F2
:100FB000167188421FD024480088491C88421AD0E4
:100FC00021480088891E884215D01F480088491E84
:100FD000884210D01C480088491E88420BD000204F
:100FE0004FF478410C2319A2CDE900104021602074
:100FF000FFF7CBFB19E000F0F9FF58B100204FF4E8
:1010000078410C2316A2CDE9001040216020FFF7A3
:10101000BCFB0AE000204FF4FC610C2314A2CDE9D4
:10102000001040216020FFF7B0FB41F2883001F052
:10103000A8F80021084600F0E1F93EBD0014014087
:1010400000100140002001409C2900204E6F7420B8
:10105000466F756E64205732355158582100000094
:101060004E6F7420466F756E6420466F6E7421005B
:101070004C6F6164696E6720666F6E742073756370
:101080006365737366756C6C7900000000BF011EA8
:10109000A0F10102D0B2FAD1704770B50346002525
:1010A00010E000240AE0002604E0CB20FFF7EEFF6A
:1010B000701CC6B20F2EF8DB601CC4B2832CF2DBAE
:1010C000681CC5B29D42ECDB70BD70B50446402182
:1010D000F74801F0C0FA0821F54801F0BCFA0025F4
:1010E00017E00121F34801F0B6FA04F0800020B1C6
:1010F0000221F04801F0ADFA03E00221ED4801F0D1
:10110000AAFA6006040E0121EA4801F0A2FA681C5E
:10111000C5B2082DE5DB0821E54801F09AFA402127
:10112000E34801F096FA70BD70B504464021E048EE
:1011300001F091FA0821DE4801F08BFA002517E052
:101140000121DC4801F087FA04F0800020B102217F
:10115000D84801F07EFA03E00221D64801F07BFA7C
:101160006006040E0121D34801F073FA681CC5B271
:10117000082DE5DB0821CE4801F06BFA4021CC4870
:1011800001F067FA70BD70B505460C461520FFF7F3
:101190009CFF2846FFF799FF2046FFF796FF70BD9A
:1011A00070B505460C467520FFF78FFF2846FFF700
:1011B0008CFF2046FFF789FF70BD10B50446A020C4
:1011C000FFF783FF2046FFF780FF10BD10B50446F0
:1011D000A120FFF77AFF2046FFF777FF10BD10B57B
:1011E0000446A220FFF771FF2046FFF76EFF10BDF7
:1011F00010B5044644F0A400FFF767FF10BD10B51A
:10120000044644F0AE00FFF760FF10BD10B5044681
:10121000B020FFF75AFF2046FFF757FF10BD10B56B
:101220000446B120FFF751FF2046FFF74EFF10BDE7
:1012300010B50446B320FFF748FF2046FFF745FFEF
:1012400010BD10B50446BB20FFF73FFF2046FFF757
:101250003CFF10BD10B50446BE20FFF736FF204608
:10126000FFF733FF10BD70B506460C4615468120CA
:10127000FFF72BFF3046FFF728FF8220FFF725FFFF
:101280002046FFF722FF8320FFF71FFF2846FFF7C6
:101290001CFF70BD70B506460C4615468A20FFF748
:1012A00014FF3046FFF711FF8B20FFF70EFF20469B
:1012B000FFF70BFF8C20FFF708FF2846FFF705FF1D
:1012C00070BD10B504468720FFF7FFFE2046FFF7EC
:1012D000FCFE10BD10B50446AD20FFF7F6FE20461B
:1012E000FFF7F3FE10BD10B50446A820FFF7EDFE92
:1012F0002046FFF7EAFE10BD10B50446FD20FFF7BB
:10130000E4FE2046FFF7E1FE10BD10B5044626209E
:10131000FFF7DBFE2046FFF7D8FE10BD2DE9F047B2
:1013200007460C4615461E46DDE9099ADDF8208081
:101330002120FFF7CAFE3846FFF7C7FE2046FFF719
:10134000C4FE2846FFF7C1FE3046FFF7BEFE40460A
:10135000FFF7BBFE4846FFF7B8FE5046FFF7B5FE65
:10136000BDE8F0872DE9F05F07460C4615461E469E
:10137000DDE90CABDDE90A892220FFF7A6FE38463D
:10138000FFF7A3FE2046FFF7A0FE2846FFF79DFECD
:101390003046FFF79AFE4046FFF797FE4846FFF7B4
:1013A00094FE5046FFF791FE5846FFF78EFE0E98CA
:1013B000FFF78BFE0F98FFF788FEBDE8F09F2DE941
:1013C000F04707460C4615461E46DDE908892320EE
:1013D000FFF77BFE3846FFF778FE2046FFF775FEE5
:1013E0002846FFF772FE3046FFF76FFE4046FFF7D4
:1013F0006CFE4846FFF769FEBDE8F0872DE9F04135
:1014000007460C465F210020FFF7BDFE3F2100206C
:10141000FFF7C6FE00250DE0002607E03846FFF77F
:1014200083FE2046FFF780FE701CC6B2602EF5DBFF
:10143000681CC5B2402DEFDBBDE8F0812DE9F05FFF
:1014400006460F4614461D46DDE90AAB39463046CE
:10145000FFF799FE29462046FFF7A2FE4FF000084D
:1014600014E04FF0000909E05046FFF75DFE5846D2
:10147000FFF75AFE09F1010000F0FF09B81B401CFC
:101480004845F1DC08F1010000F0FF08281B401C72
:101490004045E6DCBDE8F09F70B55F210020FFF716
:1014A00072FE3F210020FFF77BFE00252AE00000AE
:1014B000001401400010014000240DE0FF20FFF760
:1014C00033FEFF20FFF730FE0020FFF72DFE002047
:1014D000FFF72AFE601CC4B2602CEFDB00240DE095
:1014E0000020FFF721FE0020FFF71EFEFF20FFF780
:1014F0001BFEFF20FFF718FE601CC4B2602CEFDB60
:10150000681CC5B2402DD7DB70BD1CB5FF20009014
:101510003F2300220C2101901046FFF78FFFE020AF
:10152000FF213F230022CDE9001018210C20FFF7F6
:1015300085FF1F20F8213F230022CDE90010242140
:101540001820FFF77BFFFF2007213F230022CDE972
:10155000001030212420FFF771FF0020F8213F23E5
:101560000246CDE900103C213020FFF767FFE02064
:1015700007213F230022CDE9001048213C20FFF73E
:101580005DFF1F2000213F230A46CDE900105421B2
:101590004820FFF753FF002000903F2302465F21C1
:1015A00001905420FFF74AFF1CBD2DE9F04107468A
:1015B0000C4615461E462520FFF787FD3846FFF7E7
:1015C000B3FD2046FFF7B0FD2846FFF7ADFD3046DE
:1015D000FFF7AAFDBDE8F0812DE9F05F80460D46DA
:1015E00016461F46DDF82890701B401CA9EB07012A
:1015F000491C00FB01FB444631462846FFF7C3FD6A
:1016000049463846FFF7CCFD4FF0000A09E0207844
:10161000FFF78AFD641C2078FFF786FD641C0AF141
:10162000010ADA45F3D3BDE8F09F2DE9F05F80466B
:101630000D4616461F46DDF828904446314628469A
:10164000FFF7A1FD49463846FFF7AAFD4FF0000A13
:101650001AE04FF0000B0FE02078FFF765FD641CE7
:101660002078FFF761FD641C2078FFF75DFD641CA6
:101670000BF1010000F0FF0B701B401C5845EBDC28
:101680000AF1010000F0FF0AA9EB0700401C5045D9
:10169000DFDCBDE8F09F2DE9F04106460D46174618
:1016A0006EB1002408E0C4F16001C8B2FFF78EFDFE
:1016B000384600F066FD2C44602CF4D30AE0002488
:1016C00006E0E0B2FFF782FD384600F05AFD2C44F8
:1016D000602CF6D30020FFF779FDBDE8F08110B54E
:1016E0002E20FFF7F2FC10BD10B504462046FFF790
:1016F000E8FD10BD70B506460D460120FFF77FFDE1
:10170000002406E0E0B2FFF7EFFF304600F039FDBD
:10171000641C681C8442F5D370BD70B506460D4646
:101720006C1C07E0611EC8B2FFF7DEFF304600F018
:1017300028FD641E002CF5D10020FFF760FD70BD70
:1017400010B5044634B10020FFF752FD0120FFF729
:1017500056FD05E00020FFF752FD0220FFF748FD8F
:1017600010BD10B5B820FFF7B0FC0220FFF7DCFC7D
:101770000320FFF7D9FC0420FFF7D6FC0520FFF774
:10178000D3FC0620FFF7D0FC0720FFF7CDFC082094
:10179000FFF7CAFC0920FFF7C7FC0A20FFF7C4FCCB
:1017A0000B20FFF7C1FC0C20FFF7BEFC0D20FFF75C
:1017B000BBFC0E20FFF7B8FC0F20FFF7B5FC102094
:1017C000FFF7B2FC1120FFF7AFFC1220FFF7ACFCD3
:1017D0001320FFF7A9FC1520FFF7A6FC1720FFF741
:1017E000A3FC1920FFF7A0FC1B20FFF79DFC1D2088
:1017F000FFF79AFC1F20FFF797FC2120FFF794FCCE
:101800002320FFF791FC2520FFF78EFC2720FFF710
:101810008BFC2A20FFF788FC2D20FFF785FC302069
:10182000FFF782FC3320FFF77FFC3620FFF77CFCBC
:101830003920FFF779FC3C20FFF776FC3F20FFF7CB
:1018400073FC4220FFF770FC4520FFF76DFC482039
:10185000FFF76AFC4C20FFF767FC5020FFF764FCA1
:101860005420FFF761FC5820FFF75EFC5C20FFF777
:101870005BFC6020FFF758FC6420FFF755FC6820F4
:10188000FFF752FC6C20FFF74FFC7020FFF74CFC79
:101890007420FFF749FC7820FFF746FC7D20FFF716
:1018A00043FC8220FFF740FC8720FFF73DFC8C20A3
:1018B000FFF73AFC9120FFF737FC9620FFF734FC46
:1018C0009B20FFF731FCA020FFF72EFCA520FFF79F
:1018D0002BFCAA20FFF728FCAF20FFF725FCB42043
:1018E000FFF722FC10BD10B5B920FFF7EEFB10BDCD
:1018F00010B500244FF48050CE490860902000F0CD
:1019000019FB002000F016FB002000F013FB002064
:1019100000F010FBFF2000F00DFB44EA0024FF2044
:1019200000F008FB04434FF48050C249091F0860CF
:10193000204610BD10B500F083F94FF48050BD492A
:10194000091F0860FFF7D4FFBB49088010BD10B520
:1019500000244FF48050B7490860052000F0EAFAEF
:10196000FF2000F0E7FA04464FF48050B149091F08
:101970000860204610BD10B504464FF48050AD49B4
:101980000860012000F0D6FA204600F0D3FA4FF4A8
:101990008050A849091F086010BD10B54FF4805051
:1019A000A4490860062000F0C5FA4FF48050A14910
:1019B000091F086010BD10B54FF480509D490860A4
:1019C000042000F0B7FA4FF480509A49091F0860CC
:1019D00010BD2DE9F04106460C4617464FF48050E5
:1019E00094490860032000F0A5FAC4F3074000F012
:1019F000A1FAC4F3072000F09DFAE0B200F09AFAD1
:101A0000002505E0FF2000F095FA7055681C85B2AE
:101A1000BD42F7DB4FF480508649091F0860BDE8DE
:101A2000F08110B500BFFFF792FF00F00100002821
:101A3000F9D110BD2DE9F04106460C461746FFF7D7
:101A4000ACFF4FF480507B490860022000F072FA2E
:101A5000C4F3074000F06EFAC4F3072000F06AFAFE
:101A6000E0B200F067FA002504E0705D00F062FA71
:101A7000681C85B2BD42F8DB4FF480506D49091FE8
:101A80000860FFF7CEFFBDE8F0812DE9F041074681
:101A90000E461446F0B2C0F58075AC4200DC254617
:101AA00012E02A4631463846FFF7C4FFAC4200D167
:101AB0000BE02F442E44601B84B2B4F5807F02DD1E
:101AC0004FF4807500E02546EBE700BFBDE8F081EC
:101AD00010B504462403FFF760FFFFF7A2FF4FF4A1
:101AE000805054490860202000F024FAC4F30740D5
:101AF00000F020FAC4F3072000F01CFAE0B200F076
:101B000019FA4FF480504B49091F0860FFF789FF0D
:101B100010BD2DE9F05F81460F461646DFF81CB177
:101B20004FEA1738C7F30B0ACAF58054A64200DC07
:101B3000344644E04FEA08314FF480525846FFF7EC
:101B400048FF002508E00AEB05001BF80000FF280D
:101B500000D003E0681C85B2A542F4DB00BFA542BB
:101B600016DA4046FFF7B4FF002507E019F8050034
:101B700005EB0A010BF80100681C85B2A542F5DBF4
:101B80004FEA08314FF480525846FFF77EFF04E0D9
:101B9000224639464846FFF778FFA64200D10FE0BB
:101BA00008F101084FF0000AA1442744301B86B217
:101BB000B6F5805F02DD4FF4805400E03446B9E7AB
:101BC00000BFBDE8F09F10B5FFF7E7FEFFF729FF64
:101BD0004FF4805017490860C72000F0ABF94FF46C
:101BE00080501449091F0860FFF71BFF10BD10B596
:101BF0004FF480500F490860B92000F09BF94FF472
:101C000080500C49091F0860032000F096FA10BDAF
:101C100010B54FF4805007490860AB2000F08AF9F6
:101C20004FF480500349091F0860032000F085FA33
:101C300010BD0000140C01409C290020C029002088
:101C400008B50121082000F013FF4FF48050ADF8D3
:101C5000000010208DF8030003208DF80200694673
:101C6000CE4800F049FC4FF48051CC4800F0F1FC24
:101C70004FF40050ADF800006946C84800F03CFC45
:101C80004FF40051C54800F0E4FC4FF40040ADF8BB
:101C900000006946C14800F02FFC4FF40041BF48E6
:101CA00000F0D7FC4FF48040ADF8000048208DF8DC
:101CB00003006946B94800F01FFC08BD00204FF43E
:101CC0000051B64A10321160890011608910121D4E
:101CD0001160B24908310968C1F3803109B1411C72
:101CE000C8B24FF40051AD4A103211604106080EDF
:101CF0005114121D1160A94908310968C1F38031DE
:101D000009B1411CC8B24FF40051A44A103211600D
:101D10004106080E5114121D1160A04908310968CE
:101D2000C1F3803109B1411CC8B24FF400519B4A44
:101D3000103211604106080E5114121D11609749AE
:101D400008310968C1F3803109B1411CC8B24FF4B0
:101D50000051924A103211604106080E5114121DB2
:101D600011608E4908310968C1F3803109B1411C05
:101D7000C8B24FF40051894A103211604106080E72
:101D80005114121D1160854908310968C1F3803171
:101D900009B1411CC8B24FF40051804A10321160A1
:101DA0004106080E5114121D11607C490831096862
:101DB000C1F3803109B1411CC8B24FF40051774AD8
:101DC000103211604106080E5114121D1160734942
:101DD00008310968C1F3803109B1411CC8B24FF420
:101DE00000516E4A10321160704701468020820116
:101DF0006A4B10331A6001EA000212B102021A6043
:101E000004E04FF40042654B14331A604FF4005263
:101E1000624B14331A601B1F1A60401001EA000263
:101E20001AB14FF400421A6004E04FF400425B4BD9
:101E300014331A604FF40052584B14331A601B1FAE
:101E40001A60401001EA00021AB14FF400421A6011
:101E500004E04FF40042514B14331A604FF4005227
:101E60004E4B14331A601B1F1A60401001EA000227
:101E70001AB14FF400421A6004E04FF40042474B9D
:101E800014331A604FF40052444B14331A601B1F72
:101E90001A60401001EA00021AB14FF400421A60C1
:101EA00004E04FF400423D4B14331A604FF40052EB
:101EB0003A4B14331A601B1F1A60401001EA0002EB
:101EC0001AB14FF400421A6004E04FF40042334B61
:101ED00014331A604FF40052304B14331A601B1F36
:101EE0001A60401001EA00021AB14FF400421A6071
:101EF00004E04FF40042294B14331A604FF40052AF
:101F0000264B14331A601B1F1A60401001EA0002AE
:101F10001AB14FF400421A6004E04FF400421F4B24
:101F200014331A604FF400521C4B14331A601B1FF9
:101F30001A60704710B5014600204FF40053174C4B
:101F400010342360002225E001F080032BB14FF410
:101F50000043124C1034236004E04FF400430F4C54
:101F6000143423604FF400530C4C143423604B069C
:101F7000190E4306180E094B08331B68C3F3803350
:101F80000BB1431CD8B24FF40053044C10342360FF
:101F9000531CDAB2082AD7DB10BD0000000C014048
:101FA00008B50121482000F063FD2020ADF80000B5
:101FB00010208DF8030003208DF8020069460948BF
:101FC00000F09AFA2021074800F043FB2020ADF8EA
:101FD00000006946044800F08FFA2021024800F012
:101FE00038FB08BD000C01400018014010B500246A
:101FF0000FE0601CC4B221224FF480014148FFF77A
:10200000E8FC40480078AA2800D104E0142000F041
:10201000B8F8052CEDDB00BF3A480078AA2801D0BB
:10202000012010BD0020FCE72DE9F05F82460F463D
:1020300014462046E21704EB5272D2102146E317F1
:1020400004EB5373DB10A4EBC3030BB1012300E0DB
:1020500000231A44624302F0FF099AF800600AF173
:10206000010082460578812E05DB402D03DBFF2D24
:1020700001D0FF2E0DD14FF0000B06E0002007F835
:10208000010B0BF1010000F0FF0BCB45F6DBBDE8C7
:10209000F09F7F2D03DAA5F14000C5B202E0A5F163
:1020A0004100C5B2A6F18100C6B2BE2000FB0650B9
:1020B00000FB09F80C2C04D0102C0CD0182C1ED1CD
:1020C00013E01048D0F8090000EB08014A463846F2
:1020D000FFF77FFC13E00B48D0F8110000EB08017C
:1020E0004A463846FFF775FC09E00648D0F8190063
:1020F00000EB08014A463846FFF76BFC00BF00BF03
:1021000000BFC4E7C039002010B56FF0040000F034
:1021100074F92E4800682E49B0FBF1F02D49087083
:102120000846007800EB4001C1EBC0104FF6FF718C
:1021300001EAC0002849088010BD0146254A1278EE
:102140004A434FF0E0235A6100229A611A4612690D
:1021500042F001021A6100BF4FF0E022106900F066
:1021600001021AB100F48032002AF5D04FF0E022CB
:10217000126922F001024FF0E0231A6100229A61F5
:1021800070470146144A12884A434FF0E0235A61CF
:1021900000229A611A46126942F001021A6100BFD8
:1021A0004FF0E022106900F001021AB100F4803211
:1021B000002AF5D04FF0E022126922F001024FF020
:1021C000E0231A6100229A6170470000000000209D
:1021D00000127A009E290020A0290020014600BF9D
:1021E000704700BF494A128802F04002002AF9D025
:1021F000C2B2464B1B1D1A80704710B586B004460C
:10220000012144F2040000F033FC4FF40070ADF8FB
:10221000140003208DF8160018208DF8170005A96A
:102220003B4800F069F94FF48060ADF814000420D9
:102230008DF8170005A9364800F05EF925208DF8C5
:10224000000003208DF801008DF8020001208DF8B8
:102250000300684600F087F801940020ADF80800FC
:10226000ADF80A00ADF80C00ADF810000C20ADF888
:102270000E0001A9254800F0A2FC012240F22551E0
:10228000224800F034FD0121204800F024FD06B072
:1022900010BD10B540F225511C4800F00DFE10B3E2
:1022A0001A4800F089FDC4B21A48008800F40040C2
:1022B000C8B91848008800F4804060B10A2C03D0E7
:1022C00000201449088020E01248008840F40040B3
:1022D0001049088019E00D2C06D10E48008840F402
:1022E00080400C49088010E00A480088C0F30D00C7
:1022F00009490C5407480088401C064908800846D4
:102300000088C72801DD0020088010BD003801408A
:1023100000080140A8290020E13900200948804731
:1023200009480047FEE7FEE7FEE7FEE7FEE7FEE7B7
:10233000FEE7FEE7FEE7FEE704480549054A064BCF
:10234000704700004B03000831010008103B0020DB
:1023500010410020103D0020103D00203149014374
:10236000314A1160704770B5002100230F22C478F4
:1023700004B32D4C246804F4E064C4F5E064210A3D
:10238000C1F10403CA40447804FA03F1847814408C
:1023900021430901254C0678A155047804F01F0556
:1023A0000124AC4005786D11AD0005F1E025C5F8BC
:1023B000004109E0047804F01F050124AC401C4DE5
:1023C0000678761145F8264070BD1A4A0A40024345
:1023D000154B1B1F1A60704739B1134A121D126842
:1023E0000243114B1B1D1A6006E00F4A121D1268B2
:1023F00082430D4B1B1D1A607047042808D14FF013
:10240000E021096941F004014FF0E022116107E089
:102410004FF0E021096921F004014FF0E022116141
:10242000704700000000FA050CED00E000E400E059
:1024300080E100E080FFFF1F10B50446CC488442D5
:1024400008D10121042000F02DFB0021042000F020
:1024500029FB46E0C748844208D10121082000F04A
:1024600021FB0021082000F01DFB3AE0C248844215
:1024700008D10121102000F015FB0021102000F0F0
:1024800011FB2EE0BD48844208D10121202000F03C
:1024900009FB0021202000F005FB22E0B84884421F
:1024A00008D10121402000F0FDFA0021402000F079
:1024B000F9FA16E0B348844208D10121802000F0E7
:1024C000F1FA0021802000F0EDFA0AE0AE488442E3
:1024D00007D10121801500F0E5FA0021A01500F0D8
:1024E000E1FA10BD10B50121084600F0DBFA002129
:1024F000012000F0D7FA10BD2DE9F0410246002579
:102500000026002000230024002791F803C00CF0CF
:102510000F0591F803C00CF0100CBCF1000F03D0B4
:1025200091F802C04CEA050591F800C0BCF1000F1B
:1025300031D0146800202BE04FF0010C0CFA00F3AE
:10254000B1F800C00CEA03069E4220D183004FF090
:102550000F0C0CFA03F7BC4305FA03FC4CEA040425
:1025600091F803C0BCF1280F06D14FF0010C0CFA12
:1025700000FCC2F814C00AE091F803C0BCF1480F97
:1025800005D14FF0010C0CFA00FCC2F810C0401C41
:102590000828D1D31460B1F800C0BCF1FF0F34DDBE
:1025A000546800202EE000F1080C4FF0010808FAF2
:1025B0000CF3B1F800C00CEA03069E4221D183005F
:1025C0004FF00F0C0CFA03F7BC4305FA03FC4CEA7E
:1025D000040491F803C0BCF1280F05D100F1080CE8
:1025E00008FA0CF8C2F8148091F803C0BCF1480F47
:1025F00007D100F1080C4FF0010808FA0CF8C2F8F6
:102600001080401C0828CED35460BDE8F0814FF6FE
:10261000FF710180022181700421C1707047024660
:10262000002093680B400BB1012000E000207047B0
:102630000146886880B2704702460020D3680B408C
:102640000BB1012000E0002070470146C86880B24D
:10265000704701617047416170470AB1016100E054
:1026600041617047C16070474FF480320A43826114
:102670008161826182698269704702460020434B12
:1026800018684FF68073184040EA021008433F4B29
:10269000186070473E49C8617047F0B50A4600238C
:1026A00000240021002500F00046B6F1004F02D1C1
:1026B000364EF16901E0354E7168C0F3034583B2CF
:1026C00000F44016B6F5401F08D121F070612F4E7E
:1026D000766826F070662D4F7E6012E000F480165A
:1026E000B6F5801F06D1032606FA05F4A14341F092
:1026F000706106E0460D360103FA06F6B14341F07B
:10270000706122B1460D360103FA06F6314300F03E
:102710000046B6F1004F02D11C4EF16101E01B4EA4
:102720007160F0BD30B500228B071C0F0F2303FA38
:1027300004F2164B08338C1053F824309343134C97
:1027400008348D1044F8253023468C1053F824307B
:102750008C07240F00FA04F423430C4C08348D102A
:1027600044F8253030BD0A49DC310860704700006C
:1027700000080140000C014000100140001401401D
:1027800000180140001C01400020014000000140F1
:1027900000002042DF48006840F00100DD49086089
:1027A00008464068DC490840DA4948600846006845
:1027B000DA490840D74908600846006820F48020BC
:1027C00008600846406820F4FE0048604FF41F008F
:1027D00088607047CF49096821F48031CD4A116083
:1027E0001146096821F480211160B0F5803F03D0C3
:1027F000B0F5802F0ED106E0C649096841F480315A
:10280000C44A116007E0C349096841F4A021C14AE4
:10281000116000E000BF00BF704710B50146002204
:10282000002300204A11012A02D1BA4C236806E095
:10283000022A02D1B74C236A01E0B64C636A01F068
:102840001F02012494401C400CB1012000E0002034
:1028500010BD38B5002000900024002500BF3120B5
:10286000FFF7DBFF05460098401C00900098B0F58C
:10287000A06F01D0002DF2D03120FFF7CEFF08B1BC
:10288000012400E00024204638BD01460020A14A72
:10289000106820F0F80040EAC10010607047A049BD
:1028A00008607047024600209A4B586820F47C105C
:1028B00042EA01031843974B5860704798490866ED
:1028C000704701460020934A506820F003000843F7
:1028D000506070478F48406800F00C007047014618
:1028E00000208C4A506820F0F00008435060704788
:1028F00001460020874A506820F4E0600843506099
:10290000704701460020834A506820F4605040EA36
:10291000C1005060704729B17E4A527A02437D4B14
:102920005A7204E07B4A527A82437A4B5A72704759
:102930007B49D8310860704701460020754A5068CD
:1029400020F440400843506070470021714A203213
:102950001170704A82F82010012802D004280AD190
:1029600004E001216B4A2032117005E00521694A1B
:102970002032117000E000BF00BF70476949086055
:1029800070476449096A0143624A116270476549A8
:1029900044390860704730B500210022002400232C
:1029A0005C4D6D6805F00C0121B1042905D00829A2
:1029B00023D105E05C4D056022E05B4D05601FE022
:1029C000544D6D6805F47012524D6D6805F48034F5
:1029D000022505EB92421CB9544D554305600BE0AE
:1029E0004C4D6D6805F400351DB1504D55430560E3
:1029F00002E04D4D5543056002E04B4D056000BFC0
:102A000000BF444D6D6805F0F0010909484D6B5C4D
:102A10000568DD4045603F4D6D6805F4E061090AD9
:102A2000434D6B5C4568DD4085603A4D6D6805F44B
:102A30006051C90A3E4D6B5C4568DD40C560354D4F
:102A40006D6805F44041890B3A4D6B5CC568B5FB78
:102A5000F3F5056130BD29B12E4A526902432D4B71
:102A60005A6104E02B4A526982432A4B5A617047EB
:102A700029B1284A92690243264B9A6104E0254A0B
:102A800092698243234B9A61704729B1214AD269E6
:102A90000243204BDA6104E01E4AD26982431D4B97
:102AA000DA61704729B11B4AD2680243194BDA60D8
:102AB00004E0184AD2688243164BDA60704729B1A5
:102AC000144A12690243134B1A6104E0114A126955
:102AD0008243104B1A6170471249403908607047B1
:102AE0000F49C86470470B49C87170470948406A6C
:102AF00040F0807007494862704701460020054A4F
:102B000092680A400AB1012000E0002070470149A4
:102B100088727047001002400000FFF8FFFFF6FEC9
:102B2000000042428004424200127A0000093D0047
:102B3000AA290020BA29002010B50446FB48844287
:102B400009D101218803FFF7ADFF00214FF4804038
:102B5000FFF7A8FF32E0F648844209D1012148047A
:102B6000FFF7ADFF00214FF40030FFF7A8FF25E08D
:102B7000F048844209D101218804FFF7A0FF002119
:102B80004FF48020FFF79BFF18E0EB48844209D107
:102B90000121C804FFF793FF00214FF40020FFF745
:102BA0008EFF0BE0E548844208D101210805FFF7BC
:102BB00086FF00214FF48010FFF781FF10BD2DE943
:102BC000F04786B005460E460024A24600BFA14647
:102BD0000027B08900B100BF2F462C8A4CF6FF7049
:102BE0000440F08804432C82AC894EF6F310044074
:102BF000B08831890843718908430443AC81AC8AA9
:102C00004FF6FF400440B0890443AC8201A8FFF7AF
:102C1000C2FEC648874202D1DDF810A001E0DDF80F
:102C20000CA0A88900F4004040B10AEBCA0000EBF8
:102C30000A1031684900B0FBF1F807E00AEBCA005E
:102C400000EB0A1031688900B0FBF1F86420B8FB92
:102C5000F0F004012009642101FB1089A88900F427
:102C6000004040B1322000EBC900B0FBF1F000F0B1
:102C70000700044308E0322000EB09106421B0FB98
:102C8000F1F000F00F0004432C8106B0BDE8F0879E
:102C90004FF41651016000218180C18001810C2117
:102CA000418100218181704710B502460020108AC1
:102CB0004FF2FF0318400B884C8823438C88234332
:102CC000CC8823431843108210BD0021018041802D
:102CD0008180C180704721B1828942F40052828193
:102CE00004E082894DF6FF731A4082817047F0B587
:102CF0000346002400260025002040F66A17B9424A
:102D000000D100BF1846C1F3421401F01F0601278D
:102D100007FA06F5012C01D10C3004E0022C01D198
:102D2000103000E014301AB107682F43076002E04A
:102D30000768AF430760F0BD1AB1838A0B438382F3
:102D400002E0838A8B4383827047028A4FF6F073D6
:102D50001A400282028A0A430282704782894FF235
:102D6000FF731A40828182890A438281704721B1B0
:102D7000828942F00202828104E082894FF6FD736B
:102D80001A4082817047028A4FF6DF731A4002822E
:102D9000028A0A430282704721B1028A42F48042C9
:102DA000028204E0028A4BF6FF731A4002827047E7
:102DB000C1F308028280704701468888C0F308008A
:102DC0007047818941F0010181817047028BD2B245
:102DD0000283028B42EA012202837047028B02F4D3
:102DE0007F420283028B0A430283704721B1828AA9
:102DF00042F02002828204E0828A4FF6DF731A409A
:102E00008282704721B1828A42F01002828204E0FD
:102E1000828A4FF6EF731A408282704721B1828A0C
:102E200042F00802828204E0828A4FF6F7731A4069
:102E30008282704721B1828942F40042828103E09C
:102E40008289C2F30E028281704721B1828A42F4E4
:102E50000062828204E0828A4FF2FF731A4082820B
:102E60007047828A4FF6FB731A408282828A0A4335
:102E70008282704721B1828A42F00202828204E09B
:102E8000828A4FF6FD731A40828270470246002004
:102E9000B1F5007F00D100BF13880B400BB10120BA
:102EA00000E00020704701F40072B2F5007F00D10D
:102EB00000BFCA430280704770B502460024002359
:102EC0000025002040F66A16B14200D100BFC1F3D0
:102ED000421501F01F03012606FA03F3012D02D16A
:102EE0009689334006E0022D02D1168A334001E074
:102EF000968A33400C12012606FA04F416883440F0
:102F000013B10CB1012000E0002070BD10B500220B
:102F1000002340F66A14A14200D100BF0A12012426
:102F20009440A3B2DC43048010BD0000003801408F
:102F30000044004000480040004C00400050004069
:102F4000704710B5431C02E010F8011B71B18107F6
:102F5000FAD14FF0013202C88C1A8C4314EAC21124
:102F6000F9D0C01A0A0603D0C01E10BDC01A10BD89
:102F70000A0401D0801E10BD0902FCD0401E10BD05
:102F80007047704770477047754600F02BF8AE46A3
:102F900005006946534620F00700854618B020B565
:102FA000FFF7CAF9BDE820404FF000064FF00007D8
:102FB0004FF000084FF0000B21F00701AC46ACE8E1
:102FC000C009ACE8C009ACE8C009ACE8C0098D464E
:102FD000704710B50446AFF300802046BDE81040AE
:102FE000FDF70DB900487047AC3A00200C300008DE
:102FF00000000020C02900006C01000824470008E0
:10300000C029002050170000C80100081184A24AFE
:10301000040009100102030406070809833F401257
:10302000303A40042112093C0BC03D041209200B28
:1030300018C024407FE02240318012181424C01BA5
:1030400010110D803240018003801C4027401C80FD
:103050000740134010F260271F80204040201E4090
:103060002020401F3A29541A06161A0608211A046D
:10307000022B3F800631993D2912490251799A115C
:10308000152001C0063A3811295A290249564D1017
:10309000403FC028180A18C0214022402440180E82
:1030A0001A10241A24021A1B241202120D12111CC7
:1030B0003FC001182B3C80161C244023183A1F0CDB
:1030C0001C3440030C123012201C27C03806215A31
:1030D0001B24293C121C1C22C02256496C218A0840
:1030E00092119A04B61A0A621E2080404009DE49F5
:1030F0000239BF1D402080111C12041A185A1C23CB
:1031000040240849C02E274029401F4C154007C0C5
:1031100039120F1A01C41A20CA697869E41A300CEE
:10312000291869F049247D2E4030C00C19BC213A81
:103130000FF23E2240338002181A04744936693E69
:10314000311B602001190E198C493C120B3A301CBE
:10315000292211290215C03FC03C1A03045A3F60BE
:103160002C0C4023487990898469CC68092140213E
:103170004020E01FA01812261A19CC3A18CA1C22A7
:103180004031305A30C229A812202B3F806A2B3F91
:1031900080861A3EF812071A380A12381A07762C57
:1031A00007C03824154039C0062A3994291A1A4014
:1031B000163340201F304021C026400C199C412B63
:1031C0007FE093411270120C2A0358312914637F57
:1031D000E01A20133921219A100229269118080299
:1031E000800540054003B4199C1EC0044004404AB9
:1031F000312B03800C3A0629290C1A24C429374A9A
:10320000033039183C04401FE82964280B02E0050C
:1032100050055006500420EE193C11295429243A37
:10322000270849843C0410279C2924140140071ACC
:10323000042A19B1495C19263C07C00404193C1939
:103240003A190A79484990299CBF041007F00450A4
:10325000A81C5007F05C19301A023052041A06A656
:103260001C054004481932111A1F26398E11130704
:103270008019481A0754190C19801C01800616126F
:10328000061C01C007043A06D61406C0011A067CC3
:10329000396C4C1004E024291A1C05C0063E61124A
:1032A000043B7BE0FB5163FFF04D40207BE082124A
:1032B00040196B111A200259310111131FCC820CD5
:1032C000120812305A6006216F022003FC1E2006ED
:1032D00041400B0E1811043FFF10840C78120F159B
:1032E00010840F3816C0077818842912100A780F36
:1032F0008410C411240E9812E41284130808126872
:10330000021170380907E01818200440029E600876
:10331000022004181807E0280B0240024001800F29
:10332000F001800A312A80024B0FF8083112011295
:103330000DD20E491A6902218A0CCC5112061218BC
:103340002C6001800729C1380D07F008081004100F
:1033500004080807F0F0160408041FFC1A040251C0
:10336000380C0E0C10141024104411840E481E0C3E
:1033700018100411024C12880CC91808E00320042C
:103380002408243442242D1F981084203C108810D7
:103390002019602A88104B1888F9121C12103C1052
:1033A000FC130839601E3811441084343C440E3834
:1033B00030114809088C1044104408889041AC032F
:1033C0000C03C4AC010106F02F014002200410C61A
:1033D00021AB0220024129DA170410022001403AF1
:1033E00080701112122808100C106C10800F5A30C7
:1033F0000EE00C1813E4142417C4082807D0120494
:1034000010083C03C41C4007401AE4A32E04100417
:103410001FFCBE3C11040EC029301A101619021BE5
:10342000081CC1292049102B0808B069301B17C49B
:10343000127A1810111417C0105A08703930144439
:103440001C785A40401A849A2C8010844A291269A8
:103450005449FB111B011002141FFE10196F595023
:103460004F03801464181C2E393649024A0C10226E
:103470001F1904694E261FFC0C04031CE0101812CF
:1034800011ED07F00808B02D1084108002320F19DA
:10349000201C181024028E1C080A07F2C01F11C03D
:1034A00011300E0C64111D0E1C1104321A84C2223C
:1034B000381A189659B0190C1930114B1FF8901979
:1034C000162AF8B4121E1311E0121C2D7013801C62
:1034D0001E14C0103C1AE0A22EE0103C1FC0602851
:1034E0000D180C163401C001C01634180C46121CFD
:1034F0001313042CFC13042E2118090804101C10AB
:10350000641084102B041061512D7FFE4002024193
:103510001A30F71303801A603919E721491AA37F7B
:10352000FE12203A40024220DA0102891A812E98C6
:103530000124014402111AFCC611131FFC16880154
:10354000040104128852704A7010391299101B112C
:10355000082A32044AF83E19403AC871191C1D0F56
:10356000FC1104021139C13CD601290224C901060B
:103570001B1004363A848B19F629402E01041904D5
:10358000190A294C4112033F010101190119D239CD
:103590003012241E4001B4010C3239123914593052
:1035A000196E1AFC04114906112906D96019A039AF
:1035B000BE19101AF830140101FF0A1385E01A052C
:1035C0001A3A010A2942295452805CCC0124023A59
:1035D000987219023A0754590E3AF88C1C040108E3
:1035E000383936130170120C1C1001600A111501D4
:1035F000F0010C1C3001C0041A0C0C49B2128C2EC4
:10360000740170018C42199014810171120E4A18D4
:103610003019121A842A2C34014408A11201873E61
:10362000FC4002400283FFFF29162B3EFC3A611248
:10363000601A80021A40021A200201331F0F8038DC
:103640000FFE38060112196622061997191C9A31C5
:103650000C92301361802E67F807F980097903799D
:103660001279485818C0E003E0F006300804180842
:103670001FFFFE040E080787F00381E01E12F013FF
:10368000060C100A040408060C7001F9C0220E137F
:103690003BE01009EC18070808040C183A0327133C
:1036A00001E0101207F003F818041C0804170807BB
:1036B000E1D003C0E01323B0133C082320087A10A4
:1036C000B119A8223202271C127F100801FFC0077F
:1036D00080F00C13181013042062021909190F1935
:1036E00015191B19211927011322423A6603223C9E
:1036F00019A719273A180C4915191E31199B990356
:10370000294BC9120926B6D936091145616A380311
:1037100001183A066612701301803A0E2912C03A57
:1037200007139230100A7F8001FFE00380700613B8
:1037300018041A08031909190F1915191B911201F8
:103740004A08030F1003FFF807FFF88E100801C0A6
:103750003802C0580418139804011804021804040D
:1037600018061C1803F81801E02D79242DE003C079
:10377000F0662A0803100A06180803F41801E7F097
:10378000A301E02203220D221122611E8108030100
:10379000086F1A0F722B010803711EE007FCD00698
:1037A000426A1003A0091838060FF00607C03A3F16
:1037B000D8480984300208180410080317071810A5
:1037C000030FF099271303C022072A060317F806F0
:1037D00007F806185B06E01259B4280CE1E003F77D
:1037E000F0063410041808032A0C0368090616189A
:1037F00003F3F001C1B712F8580A03FC300306388E
:1038000004020803100904100308F001FFC00214A9
:103810007F5B703803011B13301A0316301C22081B
:10382000221422222241148080011340021320041A
:103830002B100819510A1B210389471A0836193C15
:1038400019421948294E1954195A69471303C01AC5
:1038500004032911100A38080F3808083808101313
:103860000C302B07E01B71133F80101BFFE003801F
:1038700070020F1006708804C088048308047F88D3
:1038800002C0900301203BFE404F12181301F815AF
:103890003E0801C21307022307E222FE2B1FC815B0
:1038A000111A382112041D0807FFF8037C040808C8
:1038B00003100A06180803F41801E7F07B01E06C16
:1038C0004A016C111A183369031310062C20078063
:1038D000918948891E1318021A1033193911BB7FB8
:1038E0008024996C2B043E2D1206131801FA6024D3
:1038F000115903123E220619032A0147B9901939BA
:10390000296C2A0203170203F00783F02202BA028D
:1039100048111A08E95903190F79A86179B1D9C07A
:10392000B1197A1A077D5A040328090307FFFE0715
:10393000FFFC043C4903693C130C082218123E109A
:103940000804C7800503C806194E2B380413B96054
:10395000898E5903192199FC25800807FC137FC023
:103960001303F81307C012782912999C290C11240B
:103970000803C022E022384A1E9E13C0043AF024F5
:1039800051100A7F8001FFE0038070064A18361943
:103990000912031A3015191B896C19301504080413
:1039A0000479032B060C778301F089482B880403E4
:1039B00019D5133C03153E01FFE6BB7F844815086B
:1039C00008040813040C13040F480C040BC0061061
:1039D000F003F03801E0E111280D01E0F803F030C8
:1039E000063010041808032A0C03180902061802EE
:1039F00007F00781C7111301802A064E4903A9F079
:103A00002912191B19211909100807FFE007FFF0F7
:103A1000043A1857890312041A101B792D1307E072
:103A20001307FE14041FE02301F81A387F13043E25
:103A30008B07C06329211EFFC0041FF8161A070553
:103A40002DFF80043F0C1A0405392149DB120610B2
:103A5000081807C07805F1C8223E18091F800463C2
:103A6000E80780F815191B3921396C1A804E1508A2
:103A7000047C08294E12F819DE1BE00845496C2920
:103A8000DB29481338042FF80403E8040F2A1E0525
:103A9000F00807C0241948021260153FFFFE20AA53
:103AA0000203911976195A112AC0D429611A010A00
:103AB00022302A0E6581D93C194E0115194B3A1056
:103AC0003D3A2006190C29D371194E091F03796F4D
:103AD0002903193F1903011412F01319F8131B18C5
:103AE0001322081326081A24031210133FF83B1F51
:103AF000F87132181A04D516FFF80FFFF0131818D2
:103B00001310083A2003133018131FF01A0FE15155
:103B10002B07C00F5B18301E1903133C081A1C74C6
:103B2000A26049247B3818245C0410105AA99E49CD
:103B3000271312303A22961903133208131E101A53
:103B40000EC879D3293F180801FFF803FFF806488B
:103B50003903130720A203120E130E6E131FF31363
:103B600031B13A2003133191131F13132E1E13206A
:103B70000E423012043A087E3AF8D5695789FC8122
:103B800069AE1C063FF803391B4903C1197A1203B9
:103B90003B200103C00803063FFE063FFC896C2B57
:103BA00001882C132FC01338F82B20385A994B1941
:103BB000274903592DD96C499F190349B109100CA4
:103BC000492AA9270A1510D81307C0130FF0131894
:103BD000305A30DE2909190F1915191B596F1201B6
:103BE0002B3FFF031310116B2009271238131FF00E
:103BF0006A0F24192D190F5B38181E1927192D3A31
:103C00001F36115A018D490349931A08934912210D
:103C10003A300391130C78131E181333081323083A
:103C20001A210312881321981A305D6A6090690383
:103C30008EFFF003FFF85AA946191E133FF01A7FB2
:103C4000EA3A18ED19212A1078237FF08A102419F6
:103C5000321A3C2A12801A2318227812702B2380E1
:103C60001219184963291E12E01A234812E022276C
:103C70003A3E0F1321F82B01E00C192179DB1338A0
:103C800038133E681327801303C82B2CF80F3B20F2
:103C90001896796C1203133C01133F838B23EC6954
:103CA0004966911A384B193912F81323E8132F88F3
:103CB0001A3E57191219C3021370195C1214151FFA
:103CC000F7FC301306200218020415FFFFFF19331A
:103CD0001939193F1945294B0111197622603A40CB
:103CE0000319A43A10263A04033A0C0F210F103F8F
:103CF000FC3FFC300C02291801101A3002E9180FA1
:103D00001039FC39FC318C021A3F02410D13381C6A
:103D1000381C2059480E113F803F80010279200C49
:103D200012BC3FBC404C31FC31200C1A9C3F9C2003
:103D30001A380229B8E90279601908091BA0091587
:103D4000606920C10516183018302D3FFFFFFC04B4
:103D5000191F0A1A0C046928012029672904092659
:103D6000302D3C01FFFC040D1A3001800C044B3F48
:103D7000FF0401101A38432904092040091490193E
:103D8000543904110A1C01040919402A3C04091E73
:103D9000803A30E40912404958091E401A3C3C2937
:103DA0000401105A3C040A1D30040918C00924807B
:103DB0000918402B803C04093640C14B0FF0021A11
:103DC0000CB3290469100114200908200620407E44
:103DD00031801220181027F02420242027F0200200
:103DE00020013FFE201231600C0404060404040884
:103DF0000408FFFF100BFFFC02020402080210027D
:103E0000221E100A2410246025807FFFC5134480E1
:103E10002D20442033371A202C3A40021960181DF7
:103E200008220841FFFE088009011001110211C299
:103E30001134FF0811141162118110015F1A01027F
:103E40003A0262153004C0FF1B04C0081A08102A89
:103E5000021A21181C02200C208820692009200940
:103E6000228921697E096009A019202820C8200A1A
:103E70001A210C1C2827FF012812DFF7BED69BDE73
:103E8000BCFFDFFFFFE73DCE3AF79E0A093201A8EB
:103E90000BF7BFDEDCD6BCE71CE71C161809EF7D6C
:103EA000DEFCD6BCD67A58092A4CA80EBECE5AD60D
:103EB0009BFFDFC639A4F7E73D1A2D9CB6B57808FD
:103EC0002CDEFCC6AC0923014DD6BBD6BB0A9F8CA9
:103ED00096BDF9DEDC1A6E9BA4F683F40E0D20E786
:103EE0001DCE5A4E19786ABF0C3DB5B8EF5DE61A83
:103EF0007E02B8097DF79ECE7AF7BDEFB08BC6196A
:103F00002E0912E89DD67BEF7E904816DB9D585B0C
:103F1000D63B142251221219F119903A3252F3A5CC
:103F200017647932BBBCE7629901380ADFCE7BFFA8
:103F3000FF6353B598CE180C5D7CB73B553B75437A
:103F40009643B6042810553B143AB3325231F1214E
:103F50004F212F6B5344A80BC619B5B88C34FFFF03
:103F6000E6FC6289012BCE5A06281D6354B5B8FFC2
:103F7000FF9D5833143B964C174C1754374C174B36
:103F8000F643B63B753B3452380B321131B0292F12
:103F9000290E9496EE3ABEC8FC7AF79E4E3C5BFF23
:103FA000DF0818129CFFFF6C15331443D6543754A6
:103FB0005754585478041A58542814D643753AF470
:103FC0003292323231F131B0318F20CD62F2D449A8
:103FD0003ECBC61A4E6DEF5DDEFC0C180F5BD52A8A
:103FE000F44BD64C3754585C985CD9022CB95C9889
:103FF000524F43D63B553AD3A27809318F398F2897
:10400000CE5A9241ACDFD67B506BC5F90A48097491
:10401000142A9343964BF74E1F651A6519651A5477
:104020001C785437F629A21A72502AD0506F396F73
:1040300028CE6B32388BDEFCF44DE73DDEFC601899
:104040000BBE1A22113B3443B64C17502ED964F9DB
:104050006D5A023D5CF95CB9A21C963B14506A3162
:1040600050880F396F20AEBDB9FFFFAD36E71CD6C3
:104070009AE2580FD6BBFFFF4A2FC5FACE5A3A72C2
:104080003272501A789EA809196D5A757B6D5A6460
:10409000503A92504A9050480F312F394FEF9EBD01
:1040A000D9B5777393CE5A4E5813F7BFD6BBD69B6C
:1040B000AD77FFFEA537219032933B14A0180AB9C3
:1040C0005CF9653A6D3A6539F03E9854384BF7F033
:1040D0008A52F0195018084F28CE8C15CE5BF02E5E
:1040E000BCC5F9EF5E506BEF3DFA180F4A7129F12C
:1040F00032723AF443754BF65437A2195219021A28
:10410000D99E1E7854374BD6181C7542F4A01CB0AB
:10411000318F5239507D310F49F0E83A9B064A7B86
:104120000E580BE75D212E31F132523AB3F22E5880
:104130005C785C9802394E180EF73B757497C5F79A
:10414000B5B69D58299050194E1B394F504E4F20EF
:10415000ADE71D422BCE3A064BDEBC0E1DAD5721FE
:104160000F50180C3132923AF43B5543B64BF7A43A
:104170002A580268154C374BF643B633146C35CDCC
:10418000F6CE17CE9A29B0316F504F394F20CEA5B9
:1041900037422BEF3D064BC6190E1F9497292F313E
:1041A000D0523C323293521E9643D64BF60238140C
:1041B000D643B643963B542AB37C96E6DAEF5DF7D6
:1041C000BE32114E59505D28EE8C56A01C7AF79ED7
:1041D000A04ADC0E180D62D1294F31B031D1321115
:1041E0003252521CD33B14542A7502280D3B353BE6
:1041F000143AD332736BD1BDD72A6D52F3312E4EA0
:1042000019F24C2F5AB1424809DEFCF7BFFFFFE616
:10421000FC0E180D5AB220EE292E294F298F31D0CD
:10422000542A725419021AF4042CB33293642D7B6D
:10423000CF94B22A2D849728EE50394E4E6F292FF5
:104240005AD242280BE73DFFDFFFFFD69BFFDFA4DA
:1042500028128C5573F594D794D87C364AF329F1FB
:1042600021B02AA81A52581A720618103229D15BA6
:10427000966B2B6B4DFFDEF77DC65B50294C180EFD
:104280004F392F314F290F6312FFFFEF7EF02A7B4A
:10429000F01BC61A4C580A34F79EDEDABDB4E6FAB3
:1042A0006A180A5D9D5942D3219031F1AA1809116B
:1042B00031F131F029908450180D52AACE18DEBA8F
:1042C000DEDA41F1312E5048100E312F52F45B32BC
:1042D000B5D9FFFFAD58F7BEF01813E73DF7BEBDE7
:1042E000D9DEDBE71D7BD48456A579DF3E51180E5D
:1042F000DEEF3CDEBA94F73A52297031B00228283A
:104300006F4AB394B2736D6B2CBDD7B595B5958CD0
:104310005628EE310E42118C956B2C41C6BDD6D677
:10432000BBAD56DEDBDEFC8C183FD6BBFFFFA5170E
:10433000B5B8FFFF20AD28EE28EE294F5AF3B5DAC5
:10434000E73BCE17B574AD756374294F316F296F94
:1043500094D68C307BAE84547C16AD33A4D2AD356C
:1043600039905AB39CD362CA641808D3FFFFB5973B
:10437000AD784A2A9B50182DEF7EEF7DD67B9CF6B8
:10438000FFFF6B1328EE394F394F312E290E5AF3A8
:10439000BDF9B5749CB29CB27C36210F7C36AD332E
:1043A00094709CD4E8181470A5158C308C309D182E
:1043B000A53583CE8C7163B55B34CF4CDCBDD89A08
:1043C00049A2280DEF7DAD77DEDBD69C186D312F2D
:1043D000521817396F310E317094D7A4F2840F7BC5
:1043E000CEBDFACE17AD53A5564E68200E30EE6BFB
:1043F000358C50736D7BCEA5139CB16BF710CECE70
:104400007BDEFB9CB6EF7DE71CF79E502DFFDFF7B0
:10441000BE0A1F7BD439B0310F4C1A2F021E0F2059
:10442000AD7BF63C180C4D6B0BBDD6A519292F3171
:104430000EBC18124F28EE7BD5630B5AAA62EBB55F
:10444000FA21915313EE480898A516FFFFCE5A4E55
:104450002DFFFFF7BFFA18179CF5DEDBFFFF83F097
:104460007BD362F441B1394F41D16B54C61B121852
:104470000DEF5ACA528A7BF2525228EE39BE681B9F
:1044800020CE7C36EF5C7B8D52684A276BB0F7DF1D
:10449000E71CA4F7EF9EF79EDEFC501DFFFFDEBC7D
:1044A000A61C9B7BD2061816BA5ACA632B7BCF94E4
:1044B00094D6BAEF5DCE7C84166B5484513C180BB5
:1044C00048738E73D5399020EE7C8C1811FFFFC68F
:1044D0005C6BF463B1C617FFFFAD37BDD8108A3AE5
:1044E0004E29012819E73DFFFFBDD9BDB8FFFFBE2A
:1044F0001A31D04A714A514A31398F28EE02180ECA
:104500004A328454630B420652A973B09D42180B81
:10451000EF9E743629D1110FA5794E2A574ECDDE64
:10452000DCF79E501DFFDFEF7EF41CD6AD376C1814
:10453000081A290E290E314F023A6F0228184F2906
:104540004F52F47C55638F7C536BF4533429D02144
:104550007021B0BE1A30D8099CB6F79EF7BED69B24
:104560004E395229641BA51622780CBEF7BE633360
:10457000210F296F31B002081E1190299031D129E5
:10458000B129B0219021706374F7BEEF7DFFDFDEAB
:10459000FCFFDFFFDED67B4E19011818DEDCE73D9D
:1045A000EF9DC5FA9CD6C619FFFFCE7B63332990D9
:1045B000194F214A2B29B002180B21B0217029D0A4
:1045C0006374C63AC4280A199495B5B8FFFFF7BEBC
:1045D0000E091601380FDEBBDEDCFFFFD69BC619C5
:1045E000B578CE5A2E28125B8C776BD552F352F3E6
:1045F00073D58C97C65BF7BE28080C15A5178413D6
:10460000BDD9FFFFE73DCE9C69012DF79EBDF9089E
:104610001BEF5D782CDFAD57361BF7BEDE180C5D47
:10462000EF7DE73CD6BBC639A4F7BC2A5A582BD637
:104630009B7E0920011FCE5ADEBBFFDF5428187D68
:10464000AD37B578FFFFAD57A517DEDB7BD2D67B44
:104650007BF4C63AC639241BE71CC019240925017E
:104660004808BFCE7BCE7BE73D0D480BE73DE75DBD
:10467000DEDCDEFCEF7EC24DD69BCE5A0C092C014F
:10468000380BEF5DCE7BE6FDBDF9EF5E0F1EDFC69A
:104690003ADEDD4A0C305DFFBF4C093601A328101D
:1046A0003E3FF1818FFC0568083031818C0C300170
:1046B0000519145905112919390539235C3FF1FFF2
:1046C00005011A580C1008FE02920A542A38AA1240
:1046D00002480F10081FF810081818142813C810E3
:1046E000080E4F0FFE300226DA02181930020FFEB4
:1046F00008081854321C1C3254180808C399242086
:104700002C2499C30A000A10BD42524E423CC316E3
:10471000EF2D01020304042009060708090204061C
:04472000080000008D
:0400000508000131BD
:00000001FF
